{
  "address": "0xD3d289128858B065F6835cEc8894f4565d415B72",
  "abi": [
    {
      "inputs": [
        {
          "internalType": "uint256",
          "name": "_lotteryFee",
          "type": "uint256"
        },
        {
          "internalType": "uint256",
          "name": "_lotteryTicketPrice",
          "type": "uint256"
        },
        {
          "internalType": "uint256",
          "name": "_interval",
          "type": "uint256"
        },
        {
          "internalType": "uint256",
          "name": "_intervalWithdraw",
          "type": "uint256"
        },
        {
          "internalType": "address",
          "name": "_vrfCoordinator",
          "type": "address"
        },
        {
          "internalType": "bytes32",
          "name": "_gasLane",
          "type": "bytes32"
        },
        {
          "internalType": "uint64",
          "name": "_subscriptionId",
          "type": "uint64"
        },
        {
          "internalType": "uint32",
          "name": "_callbackGasLimit",
          "type": "uint32"
        },
        {
          "internalType": "uint256",
          "name": "_initLTKAmount",
          "type": "uint256"
        },
        {
          "internalType": "address",
          "name": "_USDCAddress",
          "type": "address"
        },
        {
          "internalType": "address",
          "name": "_cometcUSDCv3Address",
          "type": "address"
        }
      ],
      "stateMutability": "nonpayable",
      "type": "constructor"
    },
    {
      "inputs": [],
      "name": "Lottery__AdminWithdrawETHFailed",
      "type": "error"
    },
    {
      "inputs": [],
      "name": "Lottery__AdminWithdrawUSDCFailed",
      "type": "error"
    },
    {
      "inputs": [],
      "name": "Lottery__CompoundAllowanceFailed",
      "type": "error"
    },
    {
      "inputs": [],
      "name": "Lottery__NeedToSendCorrectAmount",
      "type": "error"
    },
    {
      "inputs": [],
      "name": "Lottery__NotOPEN_TO_PLAY",
      "type": "error"
    },
    {
      "inputs": [],
      "name": "Lottery__NotOPEN_TO_WITHDRAW",
      "type": "error"
    },
    {
      "inputs": [],
      "name": "Lottery__PlayerHas0Ticket",
      "type": "error"
    },
    {
      "inputs": [
        {
          "internalType": "address",
          "name": "_transferTo",
          "type": "address"
        },
        {
          "internalType": "uint256",
          "name": "_ltkAmount",
          "type": "uint256"
        }
      ],
      "name": "Lottery__PlayerLTKTransferToLotteryFailed",
      "type": "error"
    },
    {
      "inputs": [],
      "name": "Lottery__PlayerWithdrawLotteryFailed",
      "type": "error"
    },
    {
      "inputs": [],
      "name": "Lottery__TransferGainsToWinnerFailed",
      "type": "error"
    },
    {
      "inputs": [],
      "name": "Lottery__UnAuthorized",
      "type": "error"
    },
    {
      "inputs": [
        {
          "internalType": "uint256",
          "name": "_lotteryBalance",
          "type": "uint256"
        },
        {
          "internalType": "uint256",
          "name": "_numberOfPlayers",
          "type": "uint256"
        },
        {
          "internalType": "uint256",
          "name": "_lotteryState",
          "type": "uint256"
        }
      ],
      "name": "Lottery__UpKeepNotNeeded",
      "type": "error"
    },
    {
      "inputs": [
        {
          "internalType": "address",
          "name": "have",
          "type": "address"
        },
        {
          "internalType": "address",
          "name": "want",
          "type": "address"
        }
      ],
      "name": "OnlyCoordinatorCanFulfill",
      "type": "error"
    },
    {
      "anonymous": false,
      "inputs": [],
      "name": "CompoundWithdrawDone",
      "type": "event"
    },
    {
      "anonymous": false,
      "inputs": [],
      "name": "CompoundWithdrawRequested",
      "type": "event"
    },
    {
      "anonymous": false,
      "inputs": [
        {
          "indexed": true,
          "internalType": "address",
          "name": "player",
          "type": "address"
        }
      ],
      "name": "LotteryEntered",
      "type": "event"
    },
    {
      "anonymous": false,
      "inputs": [
        {
          "indexed": true,
          "internalType": "uint256",
          "name": "requestId",
          "type": "uint256"
        }
      ],
      "name": "RandomWinnerRequested",
      "type": "event"
    },
    {
      "anonymous": false,
      "inputs": [
        {
          "indexed": true,
          "internalType": "uint256",
          "name": "amount",
          "type": "uint256"
        }
      ],
      "name": "SupplyCompoundDone",
      "type": "event"
    },
    {
      "anonymous": false,
      "inputs": [
        {
          "indexed": true,
          "internalType": "uint256",
          "name": "timeToPlay",
          "type": "uint256"
        }
      ],
      "name": "SwitchToCalculating",
      "type": "event"
    },
    {
      "anonymous": false,
      "inputs": [
        {
          "indexed": true,
          "internalType": "uint256",
          "name": "timeToPlay",
          "type": "uint256"
        }
      ],
      "name": "SwitchToOpenToPlay",
      "type": "event"
    },
    {
      "anonymous": false,
      "inputs": [
        {
          "indexed": true,
          "internalType": "uint256",
          "name": "timeToWithDraw",
          "type": "uint256"
        }
      ],
      "name": "SwitchToOpenToWithDraw",
      "type": "event"
    },
    {
      "anonymous": false,
      "inputs": [
        {
          "indexed": true,
          "internalType": "address",
          "name": "player",
          "type": "address"
        },
        {
          "indexed": true,
          "internalType": "uint256",
          "name": "amount",
          "type": "uint256"
        }
      ],
      "name": "UserWithdraw",
      "type": "event"
    },
    {
      "anonymous": false,
      "inputs": [
        {
          "indexed": true,
          "internalType": "address",
          "name": "s_newWinner",
          "type": "address"
        },
        {
          "indexed": true,
          "internalType": "uint256",
          "name": "s_newPrize",
          "type": "uint256"
        },
        {
          "indexed": true,
          "internalType": "uint256",
          "name": "winDate",
          "type": "uint256"
        }
      ],
      "name": "WinnerPicked",
      "type": "event"
    },
    {
      "stateMutability": "payable",
      "type": "fallback"
    },
    {
      "inputs": [],
      "name": "adminApproveAndSupplyCompound",
      "outputs": [],
      "stateMutability": "nonpayable",
      "type": "function"
    },
    {
      "inputs": [],
      "name": "adminWithdrawETH",
      "outputs": [],
      "stateMutability": "nonpayable",
      "type": "function"
    },
    {
      "inputs": [],
      "name": "adminWithdrawUSDC",
      "outputs": [],
      "stateMutability": "nonpayable",
      "type": "function"
    },
    {
      "inputs": [
        {
          "internalType": "bytes",
          "name": "checkData",
          "type": "bytes"
        }
      ],
      "name": "checkUpkeep",
      "outputs": [
        {
          "internalType": "bool",
          "name": "upkeepNeeded",
          "type": "bool"
        },
        {
          "internalType": "bytes",
          "name": "performData",
          "type": "bytes"
        }
      ],
      "stateMutability": "view",
      "type": "function"
    },
    {
      "inputs": [],
      "name": "comet",
      "outputs": [
        {
          "internalType": "contract Comet",
          "name": "",
          "type": "address"
        }
      ],
      "stateMutability": "view",
      "type": "function"
    },
    {
      "inputs": [],
      "name": "enterLottery",
      "outputs": [],
      "stateMutability": "payable",
      "type": "function"
    },
    {
      "inputs": [],
      "name": "getAdmin",
      "outputs": [
        {
          "internalType": "address",
          "name": "",
          "type": "address"
        }
      ],
      "stateMutability": "view",
      "type": "function"
    },
    {
      "inputs": [],
      "name": "getEndPlayTime",
      "outputs": [
        {
          "internalType": "uint256",
          "name": "",
          "type": "uint256"
        }
      ],
      "stateMutability": "view",
      "type": "function"
    },
    {
      "inputs": [],
      "name": "getEndWithDrawTime",
      "outputs": [
        {
          "internalType": "uint256",
          "name": "",
          "type": "uint256"
        }
      ],
      "stateMutability": "view",
      "type": "function"
    },
    {
      "inputs": [],
      "name": "getInterval",
      "outputs": [
        {
          "internalType": "uint256",
          "name": "",
          "type": "uint256"
        }
      ],
      "stateMutability": "view",
      "type": "function"
    },
    {
      "inputs": [],
      "name": "getIsFirstPlayer",
      "outputs": [
        {
          "internalType": "bool",
          "name": "",
          "type": "bool"
        }
      ],
      "stateMutability": "view",
      "type": "function"
    },
    {
      "inputs": [],
      "name": "getLTKMintInit",
      "outputs": [
        {
          "internalType": "uint256",
          "name": "",
          "type": "uint256"
        }
      ],
      "stateMutability": "view",
      "type": "function"
    },
    {
      "inputs": [],
      "name": "getLatestTimeStamp",
      "outputs": [
        {
          "internalType": "uint256",
          "name": "",
          "type": "uint256"
        }
      ],
      "stateMutability": "view",
      "type": "function"
    },
    {
      "inputs": [],
      "name": "getLotteryFee",
      "outputs": [
        {
          "internalType": "uint256",
          "name": "",
          "type": "uint256"
        }
      ],
      "stateMutability": "view",
      "type": "function"
    },
    {
      "inputs": [],
      "name": "getLotteryState",
      "outputs": [
        {
          "internalType": "uint256",
          "name": "",
          "type": "uint256"
        }
      ],
      "stateMutability": "view",
      "type": "function"
    },
    {
      "inputs": [],
      "name": "getLotteryTicketPrice",
      "outputs": [
        {
          "internalType": "uint256",
          "name": "",
          "type": "uint256"
        }
      ],
      "stateMutability": "view",
      "type": "function"
    },
    {
      "inputs": [],
      "name": "getLotteryUSDCBalance",
      "outputs": [
        {
          "internalType": "uint256",
          "name": "",
          "type": "uint256"
        }
      ],
      "stateMutability": "view",
      "type": "function"
    },
    {
      "inputs": [],
      "name": "getLotteryUSDCBalanceOnCompound",
      "outputs": [
        {
          "internalType": "uint128",
          "name": "balance",
          "type": "uint128"
        }
      ],
      "stateMutability": "view",
      "type": "function"
    },
    {
      "inputs": [],
      "name": "getNewWinnerPrize",
      "outputs": [
        {
          "internalType": "uint256",
          "name": "",
          "type": "uint256"
        }
      ],
      "stateMutability": "view",
      "type": "function"
    },
    {
      "inputs": [],
      "name": "getNumWords",
      "outputs": [
        {
          "internalType": "uint256",
          "name": "",
          "type": "uint256"
        }
      ],
      "stateMutability": "pure",
      "type": "function"
    },
    {
      "inputs": [
        {
          "internalType": "address",
          "name": "_player",
          "type": "address"
        }
      ],
      "name": "getPlayerNumberOfTickets",
      "outputs": [
        {
          "internalType": "uint256",
          "name": "",
          "type": "uint256"
        }
      ],
      "stateMutability": "view",
      "type": "function"
    },
    {
      "inputs": [],
      "name": "getPlayers",
      "outputs": [
        {
          "internalType": "address[]",
          "name": "",
          "type": "address[]"
        }
      ],
      "stateMutability": "view",
      "type": "function"
    },
    {
      "inputs": [],
      "name": "getRequestConfirmations",
      "outputs": [
        {
          "internalType": "uint256",
          "name": "",
          "type": "uint256"
        }
      ],
      "stateMutability": "pure",
      "type": "function"
    },
    {
      "inputs": [],
      "name": "getTotalNumTickets",
      "outputs": [
        {
          "internalType": "uint256",
          "name": "",
          "type": "uint256"
        }
      ],
      "stateMutability": "view",
      "type": "function"
    },
    {
      "inputs": [
        {
          "internalType": "address",
          "name": "_player",
          "type": "address"
        }
      ],
      "name": "getUSDCAmountDueToPlayer",
      "outputs": [
        {
          "internalType": "uint256",
          "name": "",
          "type": "uint256"
        }
      ],
      "stateMutability": "view",
      "type": "function"
    },
    {
      "inputs": [],
      "name": "getWinners",
      "outputs": [
        {
          "internalType": "address[]",
          "name": "",
          "type": "address[]"
        }
      ],
      "stateMutability": "view",
      "type": "function"
    },
    {
      "inputs": [],
      "name": "lotteryToken",
      "outputs": [
        {
          "internalType": "contract LotteryToken",
          "name": "",
          "type": "address"
        }
      ],
      "stateMutability": "view",
      "type": "function"
    },
    {
      "inputs": [
        {
          "internalType": "bytes",
          "name": "performData",
          "type": "bytes"
        }
      ],
      "name": "performUpkeep",
      "outputs": [],
      "stateMutability": "nonpayable",
      "type": "function"
    },
    {
      "inputs": [
        {
          "internalType": "uint256",
          "name": "requestId",
          "type": "uint256"
        },
        {
          "internalType": "uint256[]",
          "name": "randomWords",
          "type": "uint256[]"
        }
      ],
      "name": "rawFulfillRandomWords",
      "outputs": [],
      "stateMutability": "nonpayable",
      "type": "function"
    },
    {
      "inputs": [],
      "name": "usdc",
      "outputs": [
        {
          "internalType": "contract ERC20",
          "name": "",
          "type": "address"
        }
      ],
      "stateMutability": "view",
      "type": "function"
    },
    {
      "inputs": [],
      "name": "withdrawFromLottery",
      "outputs": [],
      "stateMutability": "nonpayable",
      "type": "function"
    },
    {
      "stateMutability": "payable",
      "type": "receive"
    }
  ],
  "transactionHash": "0xe1a8995abb80e0857a9e2481f46a5bb738d8fb8f74eddf4e089e08038204ef89",
  "args": [
    "1000000000000000",
    "10000000",
    "600",
    "300",
    "0x2Ca8E0C643bDe4C2E08ab1fA0da3401AdAD7734D",
    "0x79d3d8832d904592c0bf9818b621522c988bb8b0c05cdc3b15aea1b6e8db0c15",
    "5772",
    "500000",
    "10000000000000000000000",
    "0x07865c6E87B9F70255377e024ace6630C1Eaa37F",
    "0x3EE77595A8459e93C2888b13aDB354017B198188"
  ],
  "numDeployments": 1,
  "solcInputHash": "49ae557901de4fa11338a56b31da74a5",
  "bytecode": "0x6102006040527fffffffffffffffffffffffffffffffffffffffffffffffffffffffffffffffff610140908152506001600960016101000a81548160ff0219169083151502179055503480156200005557600080fd5b5060405162005d0238038062005d0283398181016040528101906200007b919062000435565b868073ffffffffffffffffffffffffffffffffffffffff1660808173ffffffffffffffffffffffffffffffffffffffff1681525050503373ffffffffffffffffffffffffffffffffffffffff166101608173ffffffffffffffffffffffffffffffffffffffff16815250508a60a081815250508960c081815250506000600960006101000a81548160ff021916908360028111156200011f576200011e62000542565b5b0217905550886101008181525050876101208181525050426002819055508673ffffffffffffffffffffffffffffffffffffffff166101808173ffffffffffffffffffffffffffffffffffffffff1681525050856101a081815250508467ffffffffffffffff166101c08167ffffffffffffffff16815250508363ffffffff166101e08163ffffffff16815250508260e0818152505082604051620001c490620002c1565b620001d0919062000582565b604051809103906000f080158015620001ed573d6000803e3d6000fd5b50600960026101000a81548173ffffffffffffffffffffffffffffffffffffffff021916908373ffffffffffffffffffffffffffffffffffffffff16021790555081600a60006101000a81548173ffffffffffffffffffffffffffffffffffffffff021916908373ffffffffffffffffffffffffffffffffffffffff16021790555080600b60006101000a81548173ffffffffffffffffffffffffffffffffffffffff021916908373ffffffffffffffffffffffffffffffffffffffff16021790555050505050505050505050506200059f565b61241580620038ed83390190565b600080fd5b6000819050919050565b620002e981620002d4565b8114620002f557600080fd5b50565b6000815190506200030981620002de565b92915050565b600073ffffffffffffffffffffffffffffffffffffffff82169050919050565b60006200033c826200030f565b9050919050565b6200034e816200032f565b81146200035a57600080fd5b50565b6000815190506200036e8162000343565b92915050565b6000819050919050565b620003898162000374565b81146200039557600080fd5b50565b600081519050620003a9816200037e565b92915050565b600067ffffffffffffffff82169050919050565b620003ce81620003af565b8114620003da57600080fd5b50565b600081519050620003ee81620003c3565b92915050565b600063ffffffff82169050919050565b6200040f81620003f4565b81146200041b57600080fd5b50565b6000815190506200042f8162000404565b92915050565b60008060008060008060008060008060006101608c8e0312156200045e576200045d620002cf565b5b60006200046e8e828f01620002f8565b9b50506020620004818e828f01620002f8565b9a50506040620004948e828f01620002f8565b9950506060620004a78e828f01620002f8565b9850506080620004ba8e828f016200035d565b97505060a0620004cd8e828f0162000398565b96505060c0620004e08e828f01620003dd565b95505060e0620004f38e828f016200041e565b945050610100620005078e828f01620002f8565b9350506101206200051b8e828f016200035d565b9250506101406200052f8e828f016200035d565b9150509295989b509295989b9093969950565b7f4e487b7100000000000000000000000000000000000000000000000000000000600052602160045260246000fd5b6200057c81620002d4565b82525050565b600060208201905062000599600083018462000571565b92915050565b60805160a05160c05160e05161010051610120516101405161016051610180516101a0516101c0516101e05161326f6200067e6000396000610d0701526000610ce401526000610cc301526000610c87015260008181610aa6015281816110550152818161126b0152611ab101526000610c33015260006121db01526000818161122e0152611db0015260006114e90152600081816110cd015281816110fd015281816115370152818161177301528181611de7015261200e01526000818161075b015261155f01526000818161099f01526109f3015261326f6000f3fe6080604052600436106101dc5760003560e01c80638490010411610102578063c1af578511610095578063df15c37e11610064578063df15c37e14610654578063ed84fc911461067f578063f78fff4c14610696578063f7f5c3dd146106c1576101eb565b8063c1af5785146105dd578063cf72f718146105e7578063d53c1f0a14610612578063def6c81d14610629576101eb565b806394539467116100d15780639453946714610531578063ad567bb51461055c578063ba3e9c1214610587578063be3d8020146105b2576101eb565b806384900104146104875780638b5b9ccc146104c457806391ad27b4146104ef57806392f85bd91461051a576101eb565b806347067a581161017a5780636b68c03c116101495780636b68c03c146103c85780636e04ff0d146103f35780636e9960c3146104315780637ef82d4c1461045c576101eb565b806347067a581461030a57806353a2c19a146103355780635f1b0fd81461036057806364d92b241461038b576101eb565b8063320229eb116101b6578063320229eb146102745780633e413bee1461029f57806344b815ef146102ca5780634585e33b146102e1576101eb565b80630b08c51e146101f55780630c67686f146102205780631fe543e31461024b576101eb565b366101eb576101e96106ec565b005b6101f36106ec565b005b34801561020157600080fd5b5061020a61097c565b6040516102179190612687565b60405180910390f35b34801561022c57600080fd5b50610235610986565b60405161024291906126bd565b60405180910390f35b34801561025757600080fd5b50610272600480360381019061026d9190612871565b61099d565b005b34801561028057600080fd5b50610289610a5d565b6040516102969190612687565b60405180910390f35b3480156102ab57600080fd5b506102b4610a67565b6040516102c1919061294c565b60405180910390f35b3480156102d657600080fd5b506102df610a8d565b005b3480156102ed57600080fd5b5061030860048036038101906103039190612a1c565b610b89565b005b34801561031657600080fd5b5061031f610e84565b60405161032c9190612687565b60405180910390f35b34801561034157600080fd5b5061034a610e8d565b6040516103579190612687565b60405180910390f35b34801561036c57600080fd5b50610375610e9c565b6040516103829190612687565b60405180910390f35b34801561039757600080fd5b506103b260048036038101906103ad9190612aa3565b610ea9565b6040516103bf9190612687565b60405180910390f35b3480156103d457600080fd5b506103dd610ef2565b6040516103ea9190612687565b60405180910390f35b3480156103ff57600080fd5b5061041a60048036038101906104159190612a1c565b610f1b565b604051610428929190612b4f565b60405180910390f35b34801561043d57600080fd5b50610446611051565b6040516104539190612b8e565b60405180910390f35b34801561046857600080fd5b50610471611079565b60405161047e9190612687565b60405180910390f35b34801561049357600080fd5b506104ae60048036038101906104a99190612aa3565b611083565b6040516104bb9190612687565b60405180910390f35b3480156104d057600080fd5b506104d961119c565b6040516104e69190612c67565b60405180910390f35b3480156104fb57600080fd5b5061050461122a565b6040516105119190612687565b60405180910390f35b34801561052657600080fd5b5061052f611252565b005b34801561053d57600080fd5b506105466114bf565b6040516105539190612caa565b60405180910390f35b34801561056857600080fd5b506105716114e5565b60405161057e9190612687565b60405180910390f35b34801561059357600080fd5b5061059c61150d565b6040516105a99190612ce6565b60405180910390f35b3480156105be57600080fd5b506105c7611533565b6040516105d49190612687565b60405180910390f35b6105e56106ec565b005b3480156105f357600080fd5b506105fc61155b565b6040516106099190612687565b60405180910390f35b34801561061e57600080fd5b50610627611583565b005b34801561063557600080fd5b5061063e611962565b60405161064b9190612687565b60405180910390f35b34801561066057600080fd5b50610669611a0a565b6040516106769190612c67565b60405180910390f35b34801561068b57600080fd5b50610694611a98565b005b3480156106a257600080fd5b506106ab611bc3565b6040516106b89190612d2c565b60405180910390f35b3480156106cd57600080fd5b506106d6611c66565b6040516106e39190612687565b60405180910390f35b60006002811115610700576106ff612d47565b5b600960009054906101000a900460ff16600281111561072257610721612d47565b5b14610759576040517f5bc17e3b00000000000000000000000000000000000000000000000000000000815260040160405180910390fd5b7f000000000000000000000000000000000000000000000000000000000000000034146107b2576040517f9654d67a00000000000000000000000000000000000000000000000000000000815260040160405180910390fd5b6001600660003373ffffffffffffffffffffffffffffffffffffffff1673ffffffffffffffffffffffffffffffffffffffff16815260200190815260200160002060008282546108029190612da5565b9250508190555060016005600082825461081c9190612da5565b925050819055506008339080600181540180825580915050600190039060005260206000200160009091909190916101000a81548173ffffffffffffffffffffffffffffffffffffffff021916908373ffffffffffffffffffffffffffffffffffffffff160217905550600960029054906101000a900473ffffffffffffffffffffffffffffffffffffffff1673ffffffffffffffffffffffffffffffffffffffff1663a9059cbb33670de0b6b3a76400006040518363ffffffff1660e01b81526004016108eb929190612e14565b6020604051808303816000875af115801561090a573d6000803e3d6000fd5b505050506040513d601f19601f8201168201806040525081019061092e9190612e69565b50610937611c70565b3373ffffffffffffffffffffffffffffffffffffffff167f4c72b57c1ca715219cf2c7be9edc8a3ea19dfb9a76fb7a05e2a8062a027ee97060405160405180910390a2565b6000600154905090565b6000600960019054906101000a900460ff16905090565b7f000000000000000000000000000000000000000000000000000000000000000073ffffffffffffffffffffffffffffffffffffffff163373ffffffffffffffffffffffffffffffffffffffff1614610a4f57337f00000000000000000000000000000000000000000000000000000000000000006040517f1cf993f4000000000000000000000000000000000000000000000000000000008152600401610a46929190612e96565b60405180910390fd5b610a598282611eec565b5050565b6000600254905090565b600a60009054906101000a900473ffffffffffffffffffffffffffffffffffffffff1681565b3373ffffffffffffffffffffffffffffffffffffffff167f000000000000000000000000000000000000000000000000000000000000000073ffffffffffffffffffffffffffffffffffffffff1614610b12576040517fc62447dd00000000000000000000000000000000000000000000000000000000815260040160405180910390fd5b60006002811115610b2657610b25612d47565b5b600960009054906101000a900460ff166002811115610b4857610b47612d47565b5b14610b7f576040517f5bc17e3b00000000000000000000000000000000000000000000000000000000815260040160405180910390fd5b610b876122a9565b565b6000610b9482610f1b565b50905080610c035747600880549050600960009054906101000a900460ff166002811115610bc557610bc4612d47565b5b6040517fa9e3cfef000000000000000000000000000000000000000000000000000000008152600401610bfa93929190612ebf565b60405180910390fd5b7f5fe7f977e71dba2ea1a68e21057beebb9be2ac30c6410aa38d4f3fbe41dcffd2828051906020012003610df1577f00000000000000000000000000000000000000000000000000000000000000006000819055506001600960006101000a81548160ff02191690836002811115610c7e57610c7d612d47565b5b021790555060007f000000000000000000000000000000000000000000000000000000000000000073ffffffffffffffffffffffffffffffffffffffff16635d3b1d307f00000000000000000000000000000000000000000000000000000000000000007f000000000000000000000000000000000000000000000000000000000000000060037f000000000000000000000000000000000000000000000000000000000000000060016040518663ffffffff1660e01b8152600401610d48959493929190612f6e565b6020604051808303816000875af1158015610d67573d6000803e3d6000fd5b505050506040513d601f19601f82011682018060405250810190610d8b9190612fd6565b9050610d95612494565b807f302e4abbbf85f09e8c1a81aaabf5f64a2dca99aa646ca90b6b6bf470e4148a7e60405160405180910390a2427f1e6b8aac8e0a5395c162bd68fea69e915e7402632cb527455837422df52164a760405160405180910390a2505b7ff2ee15ea639b73fa3db9b34a245bdfa015c260c598b211bf05a1ecc4b3e3b4f2828051906020012003610e80576000600960006101000a81548160ff02191690836002811115610e4557610e44612d47565b5b0217905550610e526122a9565b427f833a8c78cd852c16da367919643d7a5496863c4cd4ea7ceff7a173b34fe9695260405160405180910390a25b5050565b60008054905090565b6000600163ffffffff16905090565b6000600361ffff16905090565b6000600660008373ffffffffffffffffffffffffffffffffffffffff1673ffffffffffffffffffffffffffffffffffffffff168152602001908152602001600020549050919050565b6000600960009054906101000a900460ff166002811115610f1657610f15612d47565b5b905090565b600060607f5fe7f977e71dba2ea1a68e21057beebb9be2ac30c6410aa38d4f3fbe41dcffd2838051906020012003610fc8576000806002811115610f6257610f61612d47565b5b600960009054906101000a900460ff166002811115610f8457610f83612d47565b5b149050600080544211905060008060088054905011905060008047119050838015610fac5750825b8015610fb55750815b8015610fbe5750805b9550869450505050505b7ff2ee15ea639b73fa3db9b34a245bdfa015c260c598b211bf05a1ecc4b3e3b4f283805190602001200361104c57600060028081111561100b5761100a612d47565b5b600960009054906101000a900460ff16600281111561102d5761102c612d47565b5b149050600060015442101590508180156110445750805b935084925050505b915091565b60007f0000000000000000000000000000000000000000000000000000000000000000905090565b6000600354905090565b600080600660008473ffffffffffffffffffffffffffffffffffffffff1673ffffffffffffffffffffffffffffffffffffffff1681526020019081526020016000205490506000807f0000000000000000000000000000000000000000000000000000000000000000836110f79190613003565b905060007f00000000000000000000000000000000000000000000000000000000000000006005546111299190613003565b90506000611135611962565b90508181111561118b576000600554670de0b6b3a7640000876111589190613003565b6111629190613074565b9050670de0b6b3a764000082826111799190613003565b6111839190613074565b94505061118f565b8293505b8395505050505050919050565b6060600880548060200260200160405190810160405280929190818152602001828054801561122057602002820191906000526020600020905b8160009054906101000a900473ffffffffffffffffffffffffffffffffffffffff1673ffffffffffffffffffffffffffffffffffffffff16815260200190600101908083116111d6575b5050505050905090565b60007f0000000000000000000000000000000000000000000000000000000000000000905090565b3373ffffffffffffffffffffffffffffffffffffffff167f000000000000000000000000000000000000000000000000000000000000000073ffffffffffffffffffffffffffffffffffffffff16146112d7576040517fc62447dd00000000000000000000000000000000000000000000000000000000815260040160405180910390fd5b60006112e1611bc3565b90506000816fffffffffffffffffffffffffffffffff16146113af57600b60009054906101000a900473ffffffffffffffffffffffffffffffffffffffff1673ffffffffffffffffffffffffffffffffffffffff1663f3fef3a3600a60009054906101000a900473ffffffffffffffffffffffffffffffffffffffff16836040518363ffffffff1660e01b815260040161137c9291906130d6565b600060405180830381600087803b15801561139657600080fd5b505af11580156113aa573d6000803e3d6000fd5b505050505b6001600960016101000a81548160ff02191690831515021790555060006113d4611962565b9050600081146114bb576000600a60009054906101000a900473ffffffffffffffffffffffffffffffffffffffff1673ffffffffffffffffffffffffffffffffffffffff1663a9059cbb33846040518363ffffffff1660e01b815260040161143d9291906130ff565b6020604051808303816000875af115801561145c573d6000803e3d6000fd5b505050506040513d601f19601f820116820180604052508101906114809190612e69565b9050806114b9576040517f6ddc899b00000000000000000000000000000000000000000000000000000000815260040160405180910390fd5b505b5050565b600960029054906101000a900473ffffffffffffffffffffffffffffffffffffffff1681565b60007f0000000000000000000000000000000000000000000000000000000000000000905090565b600b60009054906101000a900473ffffffffffffffffffffffffffffffffffffffff1681565b60007f0000000000000000000000000000000000000000000000000000000000000000905090565b60007f0000000000000000000000000000000000000000000000000000000000000000905090565b60028081111561159657611595612d47565b5b600960009054906101000a900460ff1660028111156115b8576115b7612d47565b5b146115ef576040517f0496cb0e00000000000000000000000000000000000000000000000000000000815260040160405180910390fd5b6000600660003373ffffffffffffffffffffffffffffffffffffffff1673ffffffffffffffffffffffffffffffffffffffff1681526020019081526020016000205490506000810361166d576040517fb997093000000000000000000000000000000000000000000000000000000000815260040160405180910390fd5b6000670de0b6b3a7640000826116839190613003565b90506000600960029054906101000a900473ffffffffffffffffffffffffffffffffffffffff1673ffffffffffffffffffffffffffffffffffffffff166323b872dd3330856040518463ffffffff1660e01b81526004016116e693929190613128565b6020604051808303816000875af1158015611705573d6000803e3d6000fd5b505050506040513d601f19601f820116820180604052508101906117299190612e69565b90508061176f5730826040517fb5aa8b750000000000000000000000000000000000000000000000000000000081526004016117669291906130ff565b60405180910390fd5b60007f00000000000000000000000000000000000000000000000000000000000000008461179d9190613003565b90506000600a60009054906101000a900473ffffffffffffffffffffffffffffffffffffffff1673ffffffffffffffffffffffffffffffffffffffff1663a9059cbb33846040518363ffffffff1660e01b81526004016117fe9291906130ff565b6020604051808303816000875af115801561181d573d6000803e3d6000fd5b505050506040513d601f19601f820116820180604052508101906118419190612e69565b90508061187a576040517fc61e404300000000000000000000000000000000000000000000000000000000815260040160405180910390fd5b600660003373ffffffffffffffffffffffffffffffffffffffff1673ffffffffffffffffffffffffffffffffffffffff16815260200190815260200160002054600560008282546118cb919061315f565b925050819055506000600660003373ffffffffffffffffffffffffffffffffffffffff1673ffffffffffffffffffffffffffffffffffffffff16815260200190815260200160002081905550813373ffffffffffffffffffffffffffffffffffffffff167f98824d89d47225910d3e61aa38b640d29d58b43e2dc47b4d986a588c88e0a2a860405160405180910390a35050505050565b600080600a60009054906101000a900473ffffffffffffffffffffffffffffffffffffffff1673ffffffffffffffffffffffffffffffffffffffff166370a08231306040518263ffffffff1660e01b81526004016119c09190612b8e565b602060405180830381865afa1580156119dd573d6000803e3d6000fd5b505050506040513d601f19601f82011682018060405250810190611a019190612fd6565b90508091505090565b60606004805480602002602001604051908101604052809291908181526020018280548015611a8e57602002820191906000526020600020905b8160009054906101000a900473ffffffffffffffffffffffffffffffffffffffff1673ffffffffffffffffffffffffffffffffffffffff1681526020019060010190808311611a44575b5050505050905090565b3373ffffffffffffffffffffffffffffffffffffffff167f000000000000000000000000000000000000000000000000000000000000000073ffffffffffffffffffffffffffffffffffffffff1614611b1d576040517fc62447dd00000000000000000000000000000000000000000000000000000000815260040160405180910390fd5b60003373ffffffffffffffffffffffffffffffffffffffff1647604051611b43906131c4565b60006040518083038185875af1925050503d8060008114611b80576040519150601f19603f3d011682016040523d82523d6000602084013e611b85565b606091505b5050905080611bc0576040517feaced0f800000000000000000000000000000000000000000000000000000000815260040160405180910390fd5b50565b6000600b60009054906101000a900473ffffffffffffffffffffffffffffffffffffffff1673ffffffffffffffffffffffffffffffffffffffff166370a08231306040518263ffffffff1660e01b8152600401611c209190612b8e565b602060405180830381865afa158015611c3d573d6000803e3d6000fd5b505050506040513d601f19601f82011682018060405250810190611c619190612fd6565b905090565b6000600554905090565b6000611c7a611962565b90506000600a60009054906101000a900473ffffffffffffffffffffffffffffffffffffffff1673ffffffffffffffffffffffffffffffffffffffff166339509351600b60009054906101000a900473ffffffffffffffffffffffffffffffffffffffff16846040518363ffffffff1660e01b8152600401611cfd9291906130ff565b6020604051808303816000875af1158015611d1c573d6000803e3d6000fd5b505050506040513d601f19601f82011682018060405250810190611d409190612e69565b905080611d79576040517fc21994d800000000000000000000000000000000000000000000000000000000815260040160405180910390fd5b6000600960019054906101000a900460ff1615611de5578290506000600960016101000a81548160ff0219169083151502179055507f000000000000000000000000000000000000000000000000000000000000000042611dda9190612da5565b600081905550611e09565b7f000000000000000000000000000000000000000000000000000000000000000090505b600b60009054906101000a900473ffffffffffffffffffffffffffffffffffffffff1673ffffffffffffffffffffffffffffffffffffffff1663f2b9fdb8600a60009054906101000a900473ffffffffffffffffffffffffffffffffffffffff16836040518363ffffffff1660e01b8152600401611e889291906130ff565b600060405180830381600087803b158015611ea257600080fd5b505af1158015611eb6573d6000803e3d6000fd5b50505050807f49a22ceda38ca91b4ac62806b9736d04ca01ad1328269bacba067c9b3a26ab5b60405160405180910390a2505050565b600060088054905082600081518110611f0857611f076131d9565b5b6020026020010151611f1a9190613208565b9050600060088281548110611f3257611f316131d9565b5b9060005260206000200160009054906101000a900473ffffffffffffffffffffffffffffffffffffffff16905080600760006101000a81548173ffffffffffffffffffffffffffffffffffffffff021916908373ffffffffffffffffffffffffffffffffffffffff1602179055506004819080600181540180825580915050600190039060005260206000200160009091909190916101000a81548173ffffffffffffffffffffffffffffffffffffffff021916908373ffffffffffffffffffffffffffffffffffffffff1602179055504260028190555060007f000000000000000000000000000000000000000000000000000000000000000060055461203a9190613003565b90506000612046611962565b90508181111561214557818161205c919061315f565b6003819055506000600a60009054906101000a900473ffffffffffffffffffffffffffffffffffffffff1673ffffffffffffffffffffffffffffffffffffffff1663a9059cbb856003546040518363ffffffff1660e01b81526004016120c39291906130ff565b6020604051808303816000875af11580156120e2573d6000803e3d6000fd5b505050506040513d601f19601f820116820180604052508101906121069190612e69565b90508061213f576040517f12a6c12600000000000000000000000000000000000000000000000000000000815260040160405180910390fd5b5061214e565b60006003819055505b600067ffffffffffffffff8111156121695761216861272e565b5b6040519080825280602002602001820160405280156121975781602001602082028036833780820191505090505b50600890805190602001906121ad9291906125c7565b506002600960006101000a81548160ff021916908360028111156121d4576121d3612d47565b5b02179055507f0000000000000000000000000000000000000000000000000000000000000000426122059190612da5565b60018190555042600354600760009054906101000a900473ffffffffffffffffffffffffffffffffffffffff1673ffffffffffffffffffffffffffffffffffffffff167f7e57d825a2478cc8123a008d7d1e20c0f6e8cbca89a7bc100c9b05ecb3698deb60405160405180910390a4427f2bb9761672d46a3362a19185b7536568640baf057b358b6ebd118c1006c90ea660405160405180910390a2505050505050565b60006122b3611962565b90506000600a60009054906101000a900473ffffffffffffffffffffffffffffffffffffffff1673ffffffffffffffffffffffffffffffffffffffff166339509351600b60009054906101000a900473ffffffffffffffffffffffffffffffffffffffff16846040518363ffffffff1660e01b81526004016123369291906130ff565b6020604051808303816000875af1158015612355573d6000803e3d6000fd5b505050506040513d601f19601f820116820180604052508101906123799190612e69565b9050806123b2576040517fc21994d800000000000000000000000000000000000000000000000000000000815260040160405180910390fd5b600b60009054906101000a900473ffffffffffffffffffffffffffffffffffffffff1673ffffffffffffffffffffffffffffffffffffffff1663f2b9fdb8600a60009054906101000a900473ffffffffffffffffffffffffffffffffffffffff16846040518363ffffffff1660e01b81526004016124319291906130ff565b600060405180830381600087803b15801561244b57600080fd5b505af115801561245f573d6000803e3d6000fd5b50505050817f49a22ceda38ca91b4ac62806b9736d04ca01ad1328269bacba067c9b3a26ab5b60405160405180910390a25050565b600061249e611bc3565b9050600b60009054906101000a900473ffffffffffffffffffffffffffffffffffffffff1673ffffffffffffffffffffffffffffffffffffffff1663f3fef3a3600a60009054906101000a900473ffffffffffffffffffffffffffffffffffffffff16836040518363ffffffff1660e01b815260040161251f9291906130d6565b600060405180830381600087803b15801561253957600080fd5b505af115801561254d573d6000803e3d6000fd5b505050506001600960016101000a81548160ff0219169083151502179055507f217192ec94ebf1afd2ad76606ebba615815677e403583b2a0dec32350c4d214060405160405180910390a17fdeb69c55d0b341c478a5e80fcc29e5b11a97b6309fc259f5aa4443ee0bc53bae60405160405180910390a150565b828054828255906000526020600020908101928215612640579160200282015b8281111561263f5782518260006101000a81548173ffffffffffffffffffffffffffffffffffffffff021916908373ffffffffffffffffffffffffffffffffffffffff160217905550916020019190600101906125e7565b5b50905061264d9190612651565b5090565b5b8082111561266a576000816000905550600101612652565b5090565b6000819050919050565b6126818161266e565b82525050565b600060208201905061269c6000830184612678565b92915050565b60008115159050919050565b6126b7816126a2565b82525050565b60006020820190506126d260008301846126ae565b92915050565b6000604051905090565b600080fd5b600080fd5b6126f58161266e565b811461270057600080fd5b50565b600081359050612712816126ec565b92915050565b600080fd5b6000601f19601f8301169050919050565b7f4e487b7100000000000000000000000000000000000000000000000000000000600052604160045260246000fd5b6127668261271d565b810181811067ffffffffffffffff821117156127855761278461272e565b5b80604052505050565b60006127986126d8565b90506127a4828261275d565b919050565b600067ffffffffffffffff8211156127c4576127c361272e565b5b602082029050602081019050919050565b600080fd5b60006127ed6127e8846127a9565b61278e565b905080838252602082019050602084028301858111156128105761280f6127d5565b5b835b8181101561283957806128258882612703565b845260208401935050602081019050612812565b5050509392505050565b600082601f83011261285857612857612718565b5b81356128688482602086016127da565b91505092915050565b60008060408385031215612888576128876126e2565b5b600061289685828601612703565b925050602083013567ffffffffffffffff8111156128b7576128b66126e7565b5b6128c385828601612843565b9150509250929050565b600073ffffffffffffffffffffffffffffffffffffffff82169050919050565b6000819050919050565b600061291261290d612908846128cd565b6128ed565b6128cd565b9050919050565b6000612924826128f7565b9050919050565b600061293682612919565b9050919050565b6129468161292b565b82525050565b6000602082019050612961600083018461293d565b92915050565b600080fd5b600067ffffffffffffffff8211156129875761298661272e565b5b6129908261271d565b9050602081019050919050565b82818337600083830152505050565b60006129bf6129ba8461296c565b61278e565b9050828152602081018484840111156129db576129da612967565b5b6129e684828561299d565b509392505050565b600082601f830112612a0357612a02612718565b5b8135612a138482602086016129ac565b91505092915050565b600060208284031215612a3257612a316126e2565b5b600082013567ffffffffffffffff811115612a5057612a4f6126e7565b5b612a5c848285016129ee565b91505092915050565b6000612a70826128cd565b9050919050565b612a8081612a65565b8114612a8b57600080fd5b50565b600081359050612a9d81612a77565b92915050565b600060208284031215612ab957612ab86126e2565b5b6000612ac784828501612a8e565b91505092915050565b600081519050919050565b600082825260208201905092915050565b60005b83811015612b0a578082015181840152602081019050612aef565b60008484015250505050565b6000612b2182612ad0565b612b2b8185612adb565b9350612b3b818560208601612aec565b612b448161271d565b840191505092915050565b6000604082019050612b6460008301856126ae565b8181036020830152612b768184612b16565b90509392505050565b612b8881612a65565b82525050565b6000602082019050612ba36000830184612b7f565b92915050565b600081519050919050565b600082825260208201905092915050565b6000819050602082019050919050565b612bde81612a65565b82525050565b6000612bf08383612bd5565b60208301905092915050565b6000602082019050919050565b6000612c1482612ba9565b612c1e8185612bb4565b9350612c2983612bc5565b8060005b83811015612c5a578151612c418882612be4565b9750612c4c83612bfc565b925050600181019050612c2d565b5085935050505092915050565b60006020820190508181036000830152612c818184612c09565b905092915050565b6000612c9482612919565b9050919050565b612ca481612c89565b82525050565b6000602082019050612cbf6000830184612c9b565b92915050565b6000612cd082612919565b9050919050565b612ce081612cc5565b82525050565b6000602082019050612cfb6000830184612cd7565b92915050565b60006fffffffffffffffffffffffffffffffff82169050919050565b612d2681612d01565b82525050565b6000602082019050612d416000830184612d1d565b92915050565b7f4e487b7100000000000000000000000000000000000000000000000000000000600052602160045260246000fd5b7f4e487b7100000000000000000000000000000000000000000000000000000000600052601160045260246000fd5b6000612db08261266e565b9150612dbb8361266e565b9250828201905080821115612dd357612dd2612d76565b5b92915050565b6000819050919050565b6000612dfe612df9612df484612dd9565b6128ed565b61266e565b9050919050565b612e0e81612de3565b82525050565b6000604082019050612e296000830185612b7f565b612e366020830184612e05565b9392505050565b612e46816126a2565b8114612e5157600080fd5b50565b600081519050612e6381612e3d565b92915050565b600060208284031215612e7f57612e7e6126e2565b5b6000612e8d84828501612e54565b91505092915050565b6000604082019050612eab6000830185612b7f565b612eb86020830184612b7f565b9392505050565b6000606082019050612ed46000830186612678565b612ee16020830185612678565b612eee6040830184612678565b949350505050565b6000819050919050565b612f0981612ef6565b82525050565b600067ffffffffffffffff82169050919050565b612f2c81612f0f565b82525050565b600061ffff82169050919050565b612f4981612f32565b82525050565b600063ffffffff82169050919050565b612f6881612f4f565b82525050565b600060a082019050612f836000830188612f00565b612f906020830187612f23565b612f9d6040830186612f40565b612faa6060830185612f5f565b612fb76080830184612f5f565b9695505050505050565b600081519050612fd0816126ec565b92915050565b600060208284031215612fec57612feb6126e2565b5b6000612ffa84828501612fc1565b91505092915050565b600061300e8261266e565b91506130198361266e565b92508282026130278161266e565b9150828204841483151761303e5761303d612d76565b5b5092915050565b7f4e487b7100000000000000000000000000000000000000000000000000000000600052601260045260246000fd5b600061307f8261266e565b915061308a8361266e565b92508261309a57613099613045565b5b828204905092915050565b60006130c06130bb6130b684612d01565b6128ed565b61266e565b9050919050565b6130d0816130a5565b82525050565b60006040820190506130eb6000830185612b7f565b6130f860208301846130c7565b9392505050565b60006040820190506131146000830185612b7f565b6131216020830184612678565b9392505050565b600060608201905061313d6000830186612b7f565b61314a6020830185612b7f565b6131576040830184612678565b949350505050565b600061316a8261266e565b91506131758361266e565b925082820390508181111561318d5761318c612d76565b5b92915050565b600081905092915050565b50565b60006131ae600083613193565b91506131b98261319e565b600082019050919050565b60006131cf826131a1565b9150819050919050565b7f4e487b7100000000000000000000000000000000000000000000000000000000600052603260045260246000fd5b60006132138261266e565b915061321e8361266e565b92508261322e5761322d613045565b5b82820690509291505056fea264697066735822122049de2518e2a85344a5a189d031d5ccf21fee11ba836540825e99feb45d66cab064736f6c6343000811003360806040523480156200001157600080fd5b506040516200241538038062002415833981810160405281019062000037919062000392565b6040518060400160405280600c81526020017f4c6f7474657279546f6b656e00000000000000000000000000000000000000008152506040518060400160405280600381526020017f4c544b00000000000000000000000000000000000000000000000000000000008152508160039081620000b4919062000634565b508060049081620000c6919062000634565b505050620000e9620000dd6200010260201b60201c565b6200010a60201b60201c565b620000fb3382620001d060201b60201c565b5062000836565b600033905090565b6000600560009054906101000a900473ffffffffffffffffffffffffffffffffffffffff16905081600560006101000a81548173ffffffffffffffffffffffffffffffffffffffff021916908373ffffffffffffffffffffffffffffffffffffffff1602179055508173ffffffffffffffffffffffffffffffffffffffff168173ffffffffffffffffffffffffffffffffffffffff167f8be0079c531659141344cd1fd0a4f28419497f9722a3daafe3b4186f6b6457e060405160405180910390a35050565b600073ffffffffffffffffffffffffffffffffffffffff168273ffffffffffffffffffffffffffffffffffffffff160362000242576040517f08c379a000000000000000000000000000000000000000000000000000000000815260040162000239906200077c565b60405180910390fd5b62000256600083836200034860201b60201c565b80600260008282546200026a9190620007cd565b92505081905550806000808473ffffffffffffffffffffffffffffffffffffffff1673ffffffffffffffffffffffffffffffffffffffff1681526020019081526020016000206000828254620002c19190620007cd565b925050819055508173ffffffffffffffffffffffffffffffffffffffff16600073ffffffffffffffffffffffffffffffffffffffff167fddf252ad1be2c89b69c2b068fc378daa952ba7f163c4a11628f55a4df523b3ef8360405162000328919062000819565b60405180910390a362000344600083836200034d60201b60201c565b5050565b505050565b505050565b600080fd5b6000819050919050565b6200036c8162000357565b81146200037857600080fd5b50565b6000815190506200038c8162000361565b92915050565b600060208284031215620003ab57620003aa62000352565b5b6000620003bb848285016200037b565b91505092915050565b600081519050919050565b7f4e487b7100000000000000000000000000000000000000000000000000000000600052604160045260246000fd5b7f4e487b7100000000000000000000000000000000000000000000000000000000600052602260045260246000fd5b600060028204905060018216806200044657607f821691505b6020821081036200045c576200045b620003fe565b5b50919050565b60008190508160005260206000209050919050565b60006020601f8301049050919050565b600082821b905092915050565b600060088302620004c67fffffffffffffffffffffffffffffffffffffffffffffffffffffffffffffffff8262000487565b620004d2868362000487565b95508019841693508086168417925050509392505050565b6000819050919050565b6000620005156200050f620005098462000357565b620004ea565b62000357565b9050919050565b6000819050919050565b6200053183620004f4565b6200054962000540826200051c565b84845462000494565b825550505050565b600090565b6200056062000551565b6200056d81848462000526565b505050565b5b8181101562000595576200058960008262000556565b60018101905062000573565b5050565b601f821115620005e457620005ae8162000462565b620005b98462000477565b81016020851015620005c9578190505b620005e1620005d88562000477565b83018262000572565b50505b505050565b600082821c905092915050565b60006200060960001984600802620005e9565b1980831691505092915050565b6000620006248383620005f6565b9150826002028217905092915050565b6200063f82620003c4565b67ffffffffffffffff8111156200065b576200065a620003cf565b5b6200066782546200042d565b6200067482828562000599565b600060209050601f831160018114620006ac576000841562000697578287015190505b620006a3858262000616565b86555062000713565b601f198416620006bc8662000462565b60005b82811015620006e657848901518255600182019150602085019450602081019050620006bf565b8683101562000706578489015162000702601f891682620005f6565b8355505b6001600288020188555050505b505050505050565b600082825260208201905092915050565b7f45524332303a206d696e7420746f20746865207a65726f206164647265737300600082015250565b600062000764601f836200071b565b915062000771826200072c565b602082019050919050565b60006020820190508181036000830152620007978162000755565b9050919050565b7f4e487b7100000000000000000000000000000000000000000000000000000000600052601160045260246000fd5b6000620007da8262000357565b9150620007e78362000357565b92508282019050808211156200080257620008016200079e565b5b92915050565b620008138162000357565b82525050565b600060208201905062000830600083018462000808565b92915050565b611bcf80620008466000396000f3fe608060405234801561001057600080fd5b506004361061010b5760003560e01c806370a08231116100a257806395d89b411161007157806395d89b41146102a6578063a457c2d7146102c4578063a9059cbb146102f4578063dd62ed3e14610324578063f2fde38b146103545761010b565b806370a0823114610232578063715018a61461026257806379cc67901461026c5780638da5cb5b146102885761010b565b8063313ce567116100de578063313ce567146101ac57806339509351146101ca57806340c10f19146101fa57806342966c68146102165761010b565b806306fdde0314610110578063095ea7b31461012e57806318160ddd1461015e57806323b872dd1461017c575b600080fd5b610118610370565b6040516101259190611193565b60405180910390f35b6101486004803603810190610143919061124e565b610402565b60405161015591906112a9565b60405180910390f35b610166610425565b60405161017391906112d3565b60405180910390f35b610196600480360381019061019191906112ee565b61042f565b6040516101a391906112a9565b60405180910390f35b6101b461045e565b6040516101c1919061135d565b60405180910390f35b6101e460048036038101906101df919061124e565b610467565b6040516101f191906112a9565b60405180910390f35b610214600480360381019061020f919061124e565b61049e565b005b610230600480360381019061022b9190611378565b6104b4565b005b61024c600480360381019061024791906113a5565b6104c8565b60405161025991906112d3565b60405180910390f35b61026a610510565b005b6102866004803603810190610281919061124e565b610524565b005b610290610544565b60405161029d91906113e1565b60405180910390f35b6102ae61056e565b6040516102bb9190611193565b60405180910390f35b6102de60048036038101906102d9919061124e565b610600565b6040516102eb91906112a9565b60405180910390f35b61030e6004803603810190610309919061124e565b610677565b60405161031b91906112a9565b60405180910390f35b61033e600480360381019061033991906113fc565b61069a565b60405161034b91906112d3565b60405180910390f35b61036e600480360381019061036991906113a5565b610721565b005b60606003805461037f9061146b565b80601f01602080910402602001604051908101604052809291908181526020018280546103ab9061146b565b80156103f85780601f106103cd576101008083540402835291602001916103f8565b820191906000526020600020905b8154815290600101906020018083116103db57829003601f168201915b5050505050905090565b60008061040d6107a4565b905061041a8185856107ac565b600191505092915050565b6000600254905090565b60008061043a6107a4565b9050610447858285610975565b610452858585610a01565b60019150509392505050565b60006012905090565b6000806104726107a4565b9050610493818585610484858961069a565b61048e91906114cb565b6107ac565b600191505092915050565b6104a6610c80565b6104b08282610cfe565b5050565b6104c56104bf6107a4565b82610e5d565b50565b60008060008373ffffffffffffffffffffffffffffffffffffffff1673ffffffffffffffffffffffffffffffffffffffff168152602001908152602001600020549050919050565b610518610c80565b6105226000611033565b565b610536826105306107a4565b83610975565b6105408282610e5d565b5050565b6000600560009054906101000a900473ffffffffffffffffffffffffffffffffffffffff16905090565b60606004805461057d9061146b565b80601f01602080910402602001604051908101604052809291908181526020018280546105a99061146b565b80156105f65780601f106105cb576101008083540402835291602001916105f6565b820191906000526020600020905b8154815290600101906020018083116105d957829003601f168201915b5050505050905090565b60008061060b6107a4565b90506000610619828661069a565b90508381101561065e576040517f08c379a000000000000000000000000000000000000000000000000000000000815260040161065590611571565b60405180910390fd5b61066b82868684036107ac565b60019250505092915050565b6000806106826107a4565b905061068f818585610a01565b600191505092915050565b6000600160008473ffffffffffffffffffffffffffffffffffffffff1673ffffffffffffffffffffffffffffffffffffffff16815260200190815260200160002060008373ffffffffffffffffffffffffffffffffffffffff1673ffffffffffffffffffffffffffffffffffffffff16815260200190815260200160002054905092915050565b610729610c80565b600073ffffffffffffffffffffffffffffffffffffffff168173ffffffffffffffffffffffffffffffffffffffff1603610798576040517f08c379a000000000000000000000000000000000000000000000000000000000815260040161078f90611603565b60405180910390fd5b6107a181611033565b50565b600033905090565b600073ffffffffffffffffffffffffffffffffffffffff168373ffffffffffffffffffffffffffffffffffffffff160361081b576040517f08c379a000000000000000000000000000000000000000000000000000000000815260040161081290611695565b60405180910390fd5b600073ffffffffffffffffffffffffffffffffffffffff168273ffffffffffffffffffffffffffffffffffffffff160361088a576040517f08c379a000000000000000000000000000000000000000000000000000000000815260040161088190611727565b60405180910390fd5b80600160008573ffffffffffffffffffffffffffffffffffffffff1673ffffffffffffffffffffffffffffffffffffffff16815260200190815260200160002060008473ffffffffffffffffffffffffffffffffffffffff1673ffffffffffffffffffffffffffffffffffffffff168152602001908152602001600020819055508173ffffffffffffffffffffffffffffffffffffffff168373ffffffffffffffffffffffffffffffffffffffff167f8c5be1e5ebec7d5bd14f71427d1e84f3dd0314c0f7b2291e5b200ac8c7c3b9258360405161096891906112d3565b60405180910390a3505050565b6000610981848461069a565b90507fffffffffffffffffffffffffffffffffffffffffffffffffffffffffffffffff81146109fb57818110156109ed576040517f08c379a00000000000000000000000000000000000000000000000000000000081526004016109e490611793565b60405180910390fd5b6109fa84848484036107ac565b5b50505050565b600073ffffffffffffffffffffffffffffffffffffffff168373ffffffffffffffffffffffffffffffffffffffff1603610a70576040517f08c379a0000000000000000000000000000000000000000000000000000000008152600401610a6790611825565b60405180910390fd5b600073ffffffffffffffffffffffffffffffffffffffff168273ffffffffffffffffffffffffffffffffffffffff1603610adf576040517f08c379a0000000000000000000000000000000000000000000000000000000008152600401610ad6906118b7565b60405180910390fd5b610aea8383836110f9565b60008060008573ffffffffffffffffffffffffffffffffffffffff1673ffffffffffffffffffffffffffffffffffffffff16815260200190815260200160002054905081811015610b70576040517f08c379a0000000000000000000000000000000000000000000000000000000008152600401610b6790611949565b60405180910390fd5b8181036000808673ffffffffffffffffffffffffffffffffffffffff1673ffffffffffffffffffffffffffffffffffffffff16815260200190815260200160002081905550816000808573ffffffffffffffffffffffffffffffffffffffff1673ffffffffffffffffffffffffffffffffffffffff1681526020019081526020016000206000828254610c0391906114cb565b925050819055508273ffffffffffffffffffffffffffffffffffffffff168473ffffffffffffffffffffffffffffffffffffffff167fddf252ad1be2c89b69c2b068fc378daa952ba7f163c4a11628f55a4df523b3ef84604051610c6791906112d3565b60405180910390a3610c7a8484846110fe565b50505050565b610c886107a4565b73ffffffffffffffffffffffffffffffffffffffff16610ca6610544565b73ffffffffffffffffffffffffffffffffffffffff1614610cfc576040517f08c379a0000000000000000000000000000000000000000000000000000000008152600401610cf3906119b5565b60405180910390fd5b565b600073ffffffffffffffffffffffffffffffffffffffff168273ffffffffffffffffffffffffffffffffffffffff1603610d6d576040517f08c379a0000000000000000000000000000000000000000000000000000000008152600401610d6490611a21565b60405180910390fd5b610d79600083836110f9565b8060026000828254610d8b91906114cb565b92505081905550806000808473ffffffffffffffffffffffffffffffffffffffff1673ffffffffffffffffffffffffffffffffffffffff1681526020019081526020016000206000828254610de091906114cb565b925050819055508173ffffffffffffffffffffffffffffffffffffffff16600073ffffffffffffffffffffffffffffffffffffffff167fddf252ad1be2c89b69c2b068fc378daa952ba7f163c4a11628f55a4df523b3ef83604051610e4591906112d3565b60405180910390a3610e59600083836110fe565b5050565b600073ffffffffffffffffffffffffffffffffffffffff168273ffffffffffffffffffffffffffffffffffffffff1603610ecc576040517f08c379a0000000000000000000000000000000000000000000000000000000008152600401610ec390611ab3565b60405180910390fd5b610ed8826000836110f9565b60008060008473ffffffffffffffffffffffffffffffffffffffff1673ffffffffffffffffffffffffffffffffffffffff16815260200190815260200160002054905081811015610f5e576040517f08c379a0000000000000000000000000000000000000000000000000000000008152600401610f5590611b45565b60405180910390fd5b8181036000808573ffffffffffffffffffffffffffffffffffffffff1673ffffffffffffffffffffffffffffffffffffffff168152602001908152602001600020819055508160026000828254610fb59190611b65565b92505081905550600073ffffffffffffffffffffffffffffffffffffffff168373ffffffffffffffffffffffffffffffffffffffff167fddf252ad1be2c89b69c2b068fc378daa952ba7f163c4a11628f55a4df523b3ef8460405161101a91906112d3565b60405180910390a361102e836000846110fe565b505050565b6000600560009054906101000a900473ffffffffffffffffffffffffffffffffffffffff16905081600560006101000a81548173ffffffffffffffffffffffffffffffffffffffff021916908373ffffffffffffffffffffffffffffffffffffffff1602179055508173ffffffffffffffffffffffffffffffffffffffff168173ffffffffffffffffffffffffffffffffffffffff167f8be0079c531659141344cd1fd0a4f28419497f9722a3daafe3b4186f6b6457e060405160405180910390a35050565b505050565b505050565b600081519050919050565b600082825260208201905092915050565b60005b8381101561113d578082015181840152602081019050611122565b60008484015250505050565b6000601f19601f8301169050919050565b600061116582611103565b61116f818561110e565b935061117f81856020860161111f565b61118881611149565b840191505092915050565b600060208201905081810360008301526111ad818461115a565b905092915050565b600080fd5b600073ffffffffffffffffffffffffffffffffffffffff82169050919050565b60006111e5826111ba565b9050919050565b6111f5816111da565b811461120057600080fd5b50565b600081359050611212816111ec565b92915050565b6000819050919050565b61122b81611218565b811461123657600080fd5b50565b60008135905061124881611222565b92915050565b60008060408385031215611265576112646111b5565b5b600061127385828601611203565b925050602061128485828601611239565b9150509250929050565b60008115159050919050565b6112a38161128e565b82525050565b60006020820190506112be600083018461129a565b92915050565b6112cd81611218565b82525050565b60006020820190506112e860008301846112c4565b92915050565b600080600060608486031215611307576113066111b5565b5b600061131586828701611203565b935050602061132686828701611203565b925050604061133786828701611239565b9150509250925092565b600060ff82169050919050565b61135781611341565b82525050565b6000602082019050611372600083018461134e565b92915050565b60006020828403121561138e5761138d6111b5565b5b600061139c84828501611239565b91505092915050565b6000602082840312156113bb576113ba6111b5565b5b60006113c984828501611203565b91505092915050565b6113db816111da565b82525050565b60006020820190506113f660008301846113d2565b92915050565b60008060408385031215611413576114126111b5565b5b600061142185828601611203565b925050602061143285828601611203565b9150509250929050565b7f4e487b7100000000000000000000000000000000000000000000000000000000600052602260045260246000fd5b6000600282049050600182168061148357607f821691505b6020821081036114965761149561143c565b5b50919050565b7f4e487b7100000000000000000000000000000000000000000000000000000000600052601160045260246000fd5b60006114d682611218565b91506114e183611218565b92508282019050808211156114f9576114f861149c565b5b92915050565b7f45524332303a2064656372656173656420616c6c6f77616e63652062656c6f7760008201527f207a65726f000000000000000000000000000000000000000000000000000000602082015250565b600061155b60258361110e565b9150611566826114ff565b604082019050919050565b6000602082019050818103600083015261158a8161154e565b9050919050565b7f4f776e61626c653a206e6577206f776e657220697320746865207a65726f206160008201527f6464726573730000000000000000000000000000000000000000000000000000602082015250565b60006115ed60268361110e565b91506115f882611591565b604082019050919050565b6000602082019050818103600083015261161c816115e0565b9050919050565b7f45524332303a20617070726f76652066726f6d20746865207a65726f2061646460008201527f7265737300000000000000000000000000000000000000000000000000000000602082015250565b600061167f60248361110e565b915061168a82611623565b604082019050919050565b600060208201905081810360008301526116ae81611672565b9050919050565b7f45524332303a20617070726f766520746f20746865207a65726f20616464726560008201527f7373000000000000000000000000000000000000000000000000000000000000602082015250565b600061171160228361110e565b915061171c826116b5565b604082019050919050565b6000602082019050818103600083015261174081611704565b9050919050565b7f45524332303a20696e73756666696369656e7420616c6c6f77616e6365000000600082015250565b600061177d601d8361110e565b915061178882611747565b602082019050919050565b600060208201905081810360008301526117ac81611770565b9050919050565b7f45524332303a207472616e736665722066726f6d20746865207a65726f20616460008201527f6472657373000000000000000000000000000000000000000000000000000000602082015250565b600061180f60258361110e565b915061181a826117b3565b604082019050919050565b6000602082019050818103600083015261183e81611802565b9050919050565b7f45524332303a207472616e7366657220746f20746865207a65726f206164647260008201527f6573730000000000000000000000000000000000000000000000000000000000602082015250565b60006118a160238361110e565b91506118ac82611845565b604082019050919050565b600060208201905081810360008301526118d081611894565b9050919050565b7f45524332303a207472616e7366657220616d6f756e742065786365656473206260008201527f616c616e63650000000000000000000000000000000000000000000000000000602082015250565b600061193360268361110e565b915061193e826118d7565b604082019050919050565b6000602082019050818103600083015261196281611926565b9050919050565b7f4f776e61626c653a2063616c6c6572206973206e6f7420746865206f776e6572600082015250565b600061199f60208361110e565b91506119aa82611969565b602082019050919050565b600060208201905081810360008301526119ce81611992565b9050919050565b7f45524332303a206d696e7420746f20746865207a65726f206164647265737300600082015250565b6000611a0b601f8361110e565b9150611a16826119d5565b602082019050919050565b60006020820190508181036000830152611a3a816119fe565b9050919050565b7f45524332303a206275726e2066726f6d20746865207a65726f2061646472657360008201527f7300000000000000000000000000000000000000000000000000000000000000602082015250565b6000611a9d60218361110e565b9150611aa882611a41565b604082019050919050565b60006020820190508181036000830152611acc81611a90565b9050919050565b7f45524332303a206275726e20616d6f756e7420657863656564732062616c616e60008201527f6365000000000000000000000000000000000000000000000000000000000000602082015250565b6000611b2f60228361110e565b9150611b3a82611ad3565b604082019050919050565b60006020820190508181036000830152611b5e81611b22565b9050919050565b6000611b7082611218565b9150611b7b83611218565b9250828203905081811115611b9357611b9261149c565b5b9291505056fea2646970667358221220b3ee34d1992a866549ebe4aef9277f5dc6c8a528b491ff2684f2ab0516aa592b64736f6c63430008110033",
  "devdoc": {
    "author": "SiegfriedBz",
    "details": "This implements Chainlink VRF v2 & Chainlink Keeper (\"Automation\")This implements CompoundV3 to lend USDC",
    "kind": "dev",
    "methods": {
      "checkUpkeep(bytes)": {
        "details": "function called by the ChainLink Keeper (\"Automation\") nodes ChainLink Keeper look for \"upkeepNeeded\" to return true 2 possible paths -I. --To return true the following is needed ---1. Lottery state == \"OPEN_TO_PLAY\" ---2. Lottery Time interval to Play has passed ---3. Lottery has >= 1player, and Lottery is funded ---4. ChainLink subscription has enough LINK -II. --To return true the following is needed ---1. Lottery state == \"OPEN_TO_WITHDRAW\" ---2. Lottery Time interval to WithDraw has Passed"
      },
      "performUpkeep(bytes)": {
        "details": "function called by the ChainLink Keeper (\"Automation\") nodes when checkUpkeep() returned true. 2 possible paths If upkeepNeeded is true: -I. from path 01: --I.1 a request for randomness is made to ChainLink VRF --I.2 LotteryState switch => CALCULATING) --I.3 a call is made by Lottery to Coumpound to transfer all available USDC => Lottery -II. from path 02: --II.1 LotteryState switch => OPEN_TO_PLAY --II.2 Supply Coumpound with ALL Lottery USDC balance"
      }
    },
    "title": "A sample Lottery contract with CompoundV3 USDC Lending",
    "version": 1
  },
  "userdoc": {
    "kind": "user",
    "methods": {
      "adminApproveAndSupplyCompound()": {
        "notice": "function called by Admin 1. approve Compound for all current Lottery USDC balance 2. all current Lottery USDC balance --> supply Compound"
      },
      "adminWithdrawETH()": {
        "notice": "function for Admin transfers Lottery ETH to Admin"
      },
      "adminWithdrawUSDC()": {
        "notice": "function for Admin Emergency. --> Trade-off: need to trust Admin. transfer all available USDC from Compound => Lottery /!\\ transfer Lottery USDC to Admin"
      },
      "enterLottery()": {
        "notice": "function called by Player note: this call contains 3 calls from front-end: 1. Player calls USDC to transfer i_lotteryTicketPrice USDC => Lottery 2. Player calls USDC to give allowance to Lottery to use its LTKs: required for later Player call this.withdrawFromLottery() 3. Player calls Lottery to send i_lotteryFee ETH value => Lottery transfer 1 Lottery Token to Player add Player to the players array add 1 ticket to Player playerToNumTickets mapping 3. internal calls by Lottery: 3.1 call USDC to approve Compound 3.2 call Compound to supply USDC => Compound"
      },
      "getAdmin()": {
        "notice": "Getter returns the admin address"
      },
      "getEndPlayTime()": {
        "notice": "Getter for front end returns the current Lottery round endPlayTime"
      },
      "getEndWithDrawTime()": {
        "notice": "Getter for front end returns the current Lottery round endWithDrawTime"
      },
      "getInterval()": {
        "notice": "Getter for front end returns the Lottery round duration"
      },
      "getIsFirstPlayer()": {
        "notice": "Getter for front end"
      },
      "getLTKMintInit()": {
        "notice": "Getter for front end returns the number of Lottery Tokens Minted on LTK deployment"
      },
      "getLatestTimeStamp()": {
        "notice": "Getter for front end"
      },
      "getLotteryFee()": {
        "notice": "Getter for front end returns the entrance fee"
      },
      "getLotteryState()": {
        "notice": "Getter for front end"
      },
      "getLotteryTicketPrice()": {
        "notice": "Getter for front end returns the lottery Ticket Price"
      },
      "getLotteryUSDCBalance()": {
        "notice": "Getter returns the Lottery USDC current balance (available on Lottery)"
      },
      "getLotteryUSDCBalanceOnCompound()": {
        "notice": "Getter returns the Lottery USDC amount available on Compound"
      },
      "getNewWinnerPrize()": {
        "notice": "Getter for front end"
      },
      "getNumWords()": {
        "notice": "Getter for front end"
      },
      "getPlayerNumberOfTickets(address)": {
        "notice": "Getter returns the Player's number of tickets"
      },
      "getPlayers()": {
        "notice": "Getter for front end returns the players array"
      },
      "getRequestConfirmations()": {
        "notice": "Getter for front end"
      },
      "getTotalNumTickets()": {
        "notice": "Getter returns the total number of active tickets"
      },
      "getUSDCAmountDueToPlayer(address)": {
        "notice": "Getter returns the USDC amount due to Player"
      },
      "getWinners()": {
        "notice": "Getter for front end returns the winners array"
      },
      "withdrawFromLottery()": {
        "notice": "function called by Player to withdraw its USDC from Lottery 1. Player calls Lottery --> Lottery calls LotteryToken => transfer LTK From Player to Lottery reset Player mapping toNumTickets update totalNumTickets 2. Lottery call USDC => Transfer Player's USDC from Lottery to Player note: Player get MAX of (PlayerNumTokens * TicketPrice, PlayerRatio * LotteryCurrentUSDCBalance) note: Lottery is currently in OPEN_TO_WITHDRAW state"
      }
    },
    "notice": "This contract is for creating an untamperable decentralized Lottery smart contractChainlink VRF will pick a random numberChainlink Keeper will call the function to pick a WinnerPlayer can enter Lottery by: 1. transfering USDC (lotteryTicketPrice) to start lending 2. sending ETH (lotteryFee) to pay the LotteryPlayer gets 1 Lottery Token (LTK) by entering Lottery",
    "version": 1
  },
  "storageLayout": {
    "storage": [
      {
        "astId": 2074,
        "contract": "contracts/Lottery.sol:Lottery",
        "label": "s_endPlayTime",
        "offset": 0,
        "slot": "0",
        "type": "t_uint256"
      },
      {
        "astId": 2076,
        "contract": "contracts/Lottery.sol:Lottery",
        "label": "s_endWithDrawTime",
        "offset": 0,
        "slot": "1",
        "type": "t_uint256"
      },
      {
        "astId": 2078,
        "contract": "contracts/Lottery.sol:Lottery",
        "label": "s_lastTimeStamp",
        "offset": 0,
        "slot": "2",
        "type": "t_uint256"
      },
      {
        "astId": 2080,
        "contract": "contracts/Lottery.sol:Lottery",
        "label": "s_newPrize",
        "offset": 0,
        "slot": "3",
        "type": "t_uint256"
      },
      {
        "astId": 2083,
        "contract": "contracts/Lottery.sol:Lottery",
        "label": "s_winners",
        "offset": 0,
        "slot": "4",
        "type": "t_array(t_address)dyn_storage"
      },
      {
        "astId": 2085,
        "contract": "contracts/Lottery.sol:Lottery",
        "label": "s_totalNumTickets",
        "offset": 0,
        "slot": "5",
        "type": "t_uint256"
      },
      {
        "astId": 2089,
        "contract": "contracts/Lottery.sol:Lottery",
        "label": "playerToNumTickets",
        "offset": 0,
        "slot": "6",
        "type": "t_mapping(t_address,t_uint256)"
      },
      {
        "astId": 2093,
        "contract": "contracts/Lottery.sol:Lottery",
        "label": "s_newWinner",
        "offset": 0,
        "slot": "7",
        "type": "t_address"
      },
      {
        "astId": 2096,
        "contract": "contracts/Lottery.sol:Lottery",
        "label": "s_players",
        "offset": 0,
        "slot": "8",
        "type": "t_array(t_address)dyn_storage"
      },
      {
        "astId": 2099,
        "contract": "contracts/Lottery.sol:Lottery",
        "label": "s_lotteryState",
        "offset": 0,
        "slot": "9",
        "type": "t_enum(LotteryState)2055"
      },
      {
        "astId": 2102,
        "contract": "contracts/Lottery.sol:Lottery",
        "label": "s_isFirstPlayer",
        "offset": 1,
        "slot": "9",
        "type": "t_bool"
      },
      {
        "astId": 2105,
        "contract": "contracts/Lottery.sol:Lottery",
        "label": "lotteryToken",
        "offset": 2,
        "slot": "9",
        "type": "t_contract(LotteryToken)3342"
      },
      {
        "astId": 2123,
        "contract": "contracts/Lottery.sol:Lottery",
        "label": "usdc",
        "offset": 0,
        "slot": "10",
        "type": "t_contract(ERC20)1833"
      },
      {
        "astId": 2126,
        "contract": "contracts/Lottery.sol:Lottery",
        "label": "comet",
        "offset": 0,
        "slot": "11",
        "type": "t_contract(Comet)3560"
      }
    ],
    "types": {
      "t_address": {
        "encoding": "inplace",
        "label": "address",
        "numberOfBytes": "20"
      },
      "t_array(t_address)dyn_storage": {
        "base": "t_address",
        "encoding": "dynamic_array",
        "label": "address[]",
        "numberOfBytes": "32"
      },
      "t_bool": {
        "encoding": "inplace",
        "label": "bool",
        "numberOfBytes": "1"
      },
      "t_contract(Comet)3560": {
        "encoding": "inplace",
        "label": "contract Comet",
        "numberOfBytes": "20"
      },
      "t_contract(ERC20)1833": {
        "encoding": "inplace",
        "label": "contract ERC20",
        "numberOfBytes": "20"
      },
      "t_contract(LotteryToken)3342": {
        "encoding": "inplace",
        "label": "contract LotteryToken",
        "numberOfBytes": "20"
      },
      "t_enum(LotteryState)2055": {
        "encoding": "inplace",
        "label": "enum Lottery.LotteryState",
        "numberOfBytes": "1"
      },
      "t_mapping(t_address,t_uint256)": {
        "encoding": "mapping",
        "key": "t_address",
        "label": "mapping(address => uint256)",
        "numberOfBytes": "32",
        "value": "t_uint256"
      },
      "t_uint256": {
        "encoding": "inplace",
        "label": "uint256",
        "numberOfBytes": "32"
      }
    }
  }
}