{
  "address": "0x2e5B66edbfD54286DA7beB730e40198373896cAc",
  "abi": [
    {
      "inputs": [
        {
          "internalType": "uint256",
          "name": "_lotteryFee",
          "type": "uint256"
        },
        {
          "internalType": "uint256",
          "name": "_lotteryTicketPrice",
          "type": "uint256"
        },
        {
          "internalType": "uint256",
          "name": "_interval",
          "type": "uint256"
        },
        {
          "internalType": "uint256",
          "name": "_intervalWithdraw",
          "type": "uint256"
        },
        {
          "internalType": "address",
          "name": "_vrfCoordinator",
          "type": "address"
        },
        {
          "internalType": "bytes32",
          "name": "_gasLane",
          "type": "bytes32"
        },
        {
          "internalType": "uint64",
          "name": "_subscriptionId",
          "type": "uint64"
        },
        {
          "internalType": "uint32",
          "name": "_callbackGasLimit",
          "type": "uint32"
        },
        {
          "internalType": "uint256",
          "name": "_initLTKAmount",
          "type": "uint256"
        },
        {
          "internalType": "address",
          "name": "_USDCAddress",
          "type": "address"
        },
        {
          "internalType": "address",
          "name": "_cometcUSDCv3Address",
          "type": "address"
        }
      ],
      "stateMutability": "nonpayable",
      "type": "constructor"
    },
    {
      "inputs": [],
      "name": "Lottery__AdminWithdrawETHFailed",
      "type": "error"
    },
    {
      "inputs": [],
      "name": "Lottery__CompoundAllowanceFailed",
      "type": "error"
    },
    {
      "inputs": [],
      "name": "Lottery__NeedToSendCorrectAmount",
      "type": "error"
    },
    {
      "inputs": [],
      "name": "Lottery__NotOPEN_TO_PLAY",
      "type": "error"
    },
    {
      "inputs": [],
      "name": "Lottery__NotOPEN_TO_WITHDRAW",
      "type": "error"
    },
    {
      "inputs": [],
      "name": "Lottery__PlayerHas0Ticket",
      "type": "error"
    },
    {
      "inputs": [
        {
          "internalType": "address",
          "name": "_transferTo",
          "type": "address"
        },
        {
          "internalType": "uint256",
          "name": "_ltkAmount",
          "type": "uint256"
        }
      ],
      "name": "Lottery__PlayerLTKTransferToLotteryFailed",
      "type": "error"
    },
    {
      "inputs": [],
      "name": "Lottery__PlayerWithdrawLotteryFailed",
      "type": "error"
    },
    {
      "inputs": [],
      "name": "Lottery__TransferGainsToWinnerFailed",
      "type": "error"
    },
    {
      "inputs": [],
      "name": "Lottery__UnAuthorized",
      "type": "error"
    },
    {
      "inputs": [
        {
          "internalType": "uint256",
          "name": "_lotteryBalance",
          "type": "uint256"
        },
        {
          "internalType": "uint256",
          "name": "_numberOfPlayers",
          "type": "uint256"
        },
        {
          "internalType": "uint256",
          "name": "_lotteryState",
          "type": "uint256"
        }
      ],
      "name": "Lottery__UpKeepNotNeeded",
      "type": "error"
    },
    {
      "inputs": [
        {
          "internalType": "address",
          "name": "have",
          "type": "address"
        },
        {
          "internalType": "address",
          "name": "want",
          "type": "address"
        }
      ],
      "name": "OnlyCoordinatorCanFulfill",
      "type": "error"
    },
    {
      "anonymous": false,
      "inputs": [],
      "name": "CompoundWithdrawRequestDone",
      "type": "event"
    },
    {
      "anonymous": false,
      "inputs": [
        {
          "indexed": true,
          "internalType": "address",
          "name": "player",
          "type": "address"
        }
      ],
      "name": "LotteryEntered",
      "type": "event"
    },
    {
      "anonymous": false,
      "inputs": [
        {
          "indexed": true,
          "internalType": "uint256",
          "name": "requestId",
          "type": "uint256"
        }
      ],
      "name": "RandomWinnerRequested",
      "type": "event"
    },
    {
      "anonymous": false,
      "inputs": [
        {
          "indexed": true,
          "internalType": "uint256",
          "name": "amount",
          "type": "uint256"
        }
      ],
      "name": "SupplyCompoundDone",
      "type": "event"
    },
    {
      "anonymous": false,
      "inputs": [
        {
          "indexed": true,
          "internalType": "uint256",
          "name": "timeToGetWinnerAddress",
          "type": "uint256"
        }
      ],
      "name": "SwitchToCalculatingWinnerAddress",
      "type": "event"
    },
    {
      "anonymous": false,
      "inputs": [
        {
          "indexed": true,
          "internalType": "uint256",
          "name": "timeToGetWinnerGains",
          "type": "uint256"
        }
      ],
      "name": "SwitchToCalculatingWinnerGains",
      "type": "event"
    },
    {
      "anonymous": false,
      "inputs": [
        {
          "indexed": true,
          "internalType": "uint256",
          "name": "timeToPlay",
          "type": "uint256"
        }
      ],
      "name": "SwitchToOpenToPlay",
      "type": "event"
    },
    {
      "anonymous": false,
      "inputs": [
        {
          "indexed": true,
          "internalType": "uint256",
          "name": "timeToWithDraw",
          "type": "uint256"
        }
      ],
      "name": "SwitchToOpenToWithDraw",
      "type": "event"
    },
    {
      "anonymous": false,
      "inputs": [
        {
          "indexed": true,
          "internalType": "address",
          "name": "player",
          "type": "address"
        },
        {
          "indexed": true,
          "internalType": "uint256",
          "name": "amount",
          "type": "uint256"
        }
      ],
      "name": "UserWithdraw",
      "type": "event"
    },
    {
      "anonymous": false,
      "inputs": [
        {
          "indexed": false,
          "internalType": "address",
          "name": "newWinner",
          "type": "address"
        }
      ],
      "name": "WinnerAddressPicked",
      "type": "event"
    },
    {
      "anonymous": false,
      "inputs": [
        {
          "indexed": true,
          "internalType": "address",
          "name": "newWinner",
          "type": "address"
        },
        {
          "indexed": true,
          "internalType": "uint256",
          "name": "newPrize",
          "type": "uint256"
        },
        {
          "indexed": true,
          "internalType": "uint256",
          "name": "winDate",
          "type": "uint256"
        }
      ],
      "name": "WinnerPicked",
      "type": "event"
    },
    {
      "stateMutability": "payable",
      "type": "fallback"
    },
    {
      "inputs": [],
      "name": "adminApproveAndSupplyCompound",
      "outputs": [],
      "stateMutability": "nonpayable",
      "type": "function"
    },
    {
      "inputs": [],
      "name": "adminWithdrawETH",
      "outputs": [],
      "stateMutability": "nonpayable",
      "type": "function"
    },
    {
      "inputs": [
        {
          "internalType": "bytes",
          "name": "checkData",
          "type": "bytes"
        }
      ],
      "name": "checkUpkeep",
      "outputs": [
        {
          "internalType": "bool",
          "name": "upkeepNeeded",
          "type": "bool"
        },
        {
          "internalType": "bytes",
          "name": "performData",
          "type": "bytes"
        }
      ],
      "stateMutability": "view",
      "type": "function"
    },
    {
      "inputs": [],
      "name": "comet",
      "outputs": [
        {
          "internalType": "contract Comet",
          "name": "",
          "type": "address"
        }
      ],
      "stateMutability": "view",
      "type": "function"
    },
    {
      "inputs": [],
      "name": "enterLottery",
      "outputs": [],
      "stateMutability": "payable",
      "type": "function"
    },
    {
      "inputs": [],
      "name": "getAdmin",
      "outputs": [
        {
          "internalType": "address",
          "name": "",
          "type": "address"
        }
      ],
      "stateMutability": "view",
      "type": "function"
    },
    {
      "inputs": [],
      "name": "getEndPlayTime",
      "outputs": [
        {
          "internalType": "uint256",
          "name": "",
          "type": "uint256"
        }
      ],
      "stateMutability": "view",
      "type": "function"
    },
    {
      "inputs": [],
      "name": "getEndWithDrawTime",
      "outputs": [
        {
          "internalType": "uint256",
          "name": "",
          "type": "uint256"
        }
      ],
      "stateMutability": "view",
      "type": "function"
    },
    {
      "inputs": [],
      "name": "getInterval",
      "outputs": [
        {
          "internalType": "uint256",
          "name": "",
          "type": "uint256"
        }
      ],
      "stateMutability": "view",
      "type": "function"
    },
    {
      "inputs": [],
      "name": "getIsFirstPlayer",
      "outputs": [
        {
          "internalType": "bool",
          "name": "",
          "type": "bool"
        }
      ],
      "stateMutability": "view",
      "type": "function"
    },
    {
      "inputs": [],
      "name": "getLatestTimeStamp",
      "outputs": [
        {
          "internalType": "uint256",
          "name": "",
          "type": "uint256"
        }
      ],
      "stateMutability": "view",
      "type": "function"
    },
    {
      "inputs": [],
      "name": "getLotteryFee",
      "outputs": [
        {
          "internalType": "uint256",
          "name": "",
          "type": "uint256"
        }
      ],
      "stateMutability": "view",
      "type": "function"
    },
    {
      "inputs": [],
      "name": "getLotteryState",
      "outputs": [
        {
          "internalType": "uint256",
          "name": "",
          "type": "uint256"
        }
      ],
      "stateMutability": "view",
      "type": "function"
    },
    {
      "inputs": [],
      "name": "getLotteryTicketPrice",
      "outputs": [
        {
          "internalType": "uint256",
          "name": "",
          "type": "uint256"
        }
      ],
      "stateMutability": "view",
      "type": "function"
    },
    {
      "inputs": [],
      "name": "getLotteryUSDCBalance",
      "outputs": [
        {
          "internalType": "uint256",
          "name": "",
          "type": "uint256"
        }
      ],
      "stateMutability": "view",
      "type": "function"
    },
    {
      "inputs": [],
      "name": "getLotteryUSDCBalanceOnCompound",
      "outputs": [
        {
          "internalType": "uint128",
          "name": "balance",
          "type": "uint128"
        }
      ],
      "stateMutability": "view",
      "type": "function"
    },
    {
      "inputs": [],
      "name": "getNewWinnerPrize",
      "outputs": [
        {
          "internalType": "uint256",
          "name": "",
          "type": "uint256"
        }
      ],
      "stateMutability": "view",
      "type": "function"
    },
    {
      "inputs": [],
      "name": "getNumWords",
      "outputs": [
        {
          "internalType": "uint256",
          "name": "",
          "type": "uint256"
        }
      ],
      "stateMutability": "pure",
      "type": "function"
    },
    {
      "inputs": [
        {
          "internalType": "address",
          "name": "_player",
          "type": "address"
        }
      ],
      "name": "getPlayerNumberOfTickets",
      "outputs": [
        {
          "internalType": "uint256",
          "name": "",
          "type": "uint256"
        }
      ],
      "stateMutability": "view",
      "type": "function"
    },
    {
      "inputs": [],
      "name": "getPlayers",
      "outputs": [
        {
          "internalType": "address[]",
          "name": "",
          "type": "address[]"
        }
      ],
      "stateMutability": "view",
      "type": "function"
    },
    {
      "inputs": [],
      "name": "getRequestConfirmations",
      "outputs": [
        {
          "internalType": "uint256",
          "name": "",
          "type": "uint256"
        }
      ],
      "stateMutability": "pure",
      "type": "function"
    },
    {
      "inputs": [],
      "name": "getTotalNumTickets",
      "outputs": [
        {
          "internalType": "uint256",
          "name": "",
          "type": "uint256"
        }
      ],
      "stateMutability": "view",
      "type": "function"
    },
    {
      "inputs": [],
      "name": "getWinners",
      "outputs": [
        {
          "internalType": "address[]",
          "name": "",
          "type": "address[]"
        }
      ],
      "stateMutability": "view",
      "type": "function"
    },
    {
      "inputs": [],
      "name": "lotteryToken",
      "outputs": [
        {
          "internalType": "contract LotteryToken",
          "name": "",
          "type": "address"
        }
      ],
      "stateMutability": "view",
      "type": "function"
    },
    {
      "inputs": [
        {
          "internalType": "bytes",
          "name": "performData",
          "type": "bytes"
        }
      ],
      "name": "performUpkeep",
      "outputs": [],
      "stateMutability": "nonpayable",
      "type": "function"
    },
    {
      "inputs": [
        {
          "internalType": "uint256",
          "name": "requestId",
          "type": "uint256"
        },
        {
          "internalType": "uint256[]",
          "name": "randomWords",
          "type": "uint256[]"
        }
      ],
      "name": "rawFulfillRandomWords",
      "outputs": [],
      "stateMutability": "nonpayable",
      "type": "function"
    },
    {
      "inputs": [],
      "name": "usdc",
      "outputs": [
        {
          "internalType": "contract ERC20",
          "name": "",
          "type": "address"
        }
      ],
      "stateMutability": "view",
      "type": "function"
    },
    {
      "inputs": [],
      "name": "withdrawFromLottery",
      "outputs": [],
      "stateMutability": "nonpayable",
      "type": "function"
    },
    {
      "stateMutability": "payable",
      "type": "receive"
    }
  ],
  "transactionHash": "0xed6633fa027f950f19d7f970f16d457852aed6aba1b21e3dbae4515ac8e01016",
  "args": [
    "1000000000000000",
    "10000000",
    "600",
    "300",
    "0x2Ca8E0C643bDe4C2E08ab1fA0da3401AdAD7734D",
    "0x79d3d8832d904592c0bf9818b621522c988bb8b0c05cdc3b15aea1b6e8db0c15",
    "5772",
    "500000",
    "10000000000000000000000",
    "0x07865c6E87B9F70255377e024ace6630C1Eaa37F",
    "0x3EE77595A8459e93C2888b13aDB354017B198188"
  ],
  "numDeployments": 1,
  "solcInputHash": "009e35eca4de48d3c3afd241b59c5cef",
  "bytecode": "0x6101e06040527fffffffffffffffffffffffffffffffffffffffffffffffffffffffffffffffff610120908152506001600960016101000a81548160ff0219169083151502179055503480156200005557600080fd5b5060405162005a2438038062005a2483398181016040528101906200007b91906200042c565b868073ffffffffffffffffffffffffffffffffffffffff1660808173ffffffffffffffffffffffffffffffffffffffff1681525050503373ffffffffffffffffffffffffffffffffffffffff166101408173ffffffffffffffffffffffffffffffffffffffff16815250508a60a081815250508960c081815250506000600960006101000a81548160ff021916908360038111156200011f576200011e62000539565b5b02179055508860e08181525050876101008181525050426002819055508673ffffffffffffffffffffffffffffffffffffffff166101608173ffffffffffffffffffffffffffffffffffffffff16815250508561018081815250508467ffffffffffffffff166101a08167ffffffffffffffff16815250508363ffffffff166101c08163ffffffff168152505082604051620001bb90620002b8565b620001c7919062000579565b604051809103906000f080158015620001e4573d6000803e3d6000fd5b50600960026101000a81548173ffffffffffffffffffffffffffffffffffffffff021916908373ffffffffffffffffffffffffffffffffffffffff16021790555081600a60006101000a81548173ffffffffffffffffffffffffffffffffffffffff021916908373ffffffffffffffffffffffffffffffffffffffff16021790555080600b60006101000a81548173ffffffffffffffffffffffffffffffffffffffff021916908373ffffffffffffffffffffffffffffffffffffffff160217905550505050505050505050505062000596565b612415806200360f83390190565b600080fd5b6000819050919050565b620002e081620002cb565b8114620002ec57600080fd5b50565b6000815190506200030081620002d5565b92915050565b600073ffffffffffffffffffffffffffffffffffffffff82169050919050565b6000620003338262000306565b9050919050565b620003458162000326565b81146200035157600080fd5b50565b60008151905062000365816200033a565b92915050565b6000819050919050565b62000380816200036b565b81146200038c57600080fd5b50565b600081519050620003a08162000375565b92915050565b600067ffffffffffffffff82169050919050565b620003c581620003a6565b8114620003d157600080fd5b50565b600081519050620003e581620003ba565b92915050565b600063ffffffff82169050919050565b6200040681620003eb565b81146200041257600080fd5b50565b6000815190506200042681620003fb565b92915050565b60008060008060008060008060008060006101608c8e031215620004555762000454620002c6565b5b6000620004658e828f01620002ef565b9b50506020620004788e828f01620002ef565b9a505060406200048b8e828f01620002ef565b99505060606200049e8e828f01620002ef565b9850506080620004b18e828f0162000354565b97505060a0620004c48e828f016200038f565b96505060c0620004d78e828f01620003d4565b95505060e0620004ea8e828f0162000415565b945050610100620004fe8e828f01620002ef565b935050610120620005128e828f0162000354565b925050610140620005268e828f0162000354565b9150509295989b509295989b9093969950565b7f4e487b7100000000000000000000000000000000000000000000000000000000600052602160045260246000fd5b6200057381620002cb565b82525050565b600060208201905062000590600083018462000568565b92915050565b60805160a05160c05160e05161010051610120516101405161016051610180516101a0516101c051612fba620006556000396000610c6f01526000610c4c01526000610c2b01526000610bef015260008181610a060152818161139a0152611a4801526000610b9b01526000610fdb01526000818161145a0152611d47015260008181610d83015281816114ce0152818161170a0152611d7e0152600081816106bb01526114f60152600081816108ff01526109530152612fba6000f3fe6080604052600436106101bb5760003560e01c80637ef82d4c116100ec578063cf72f7181161008a578063df15c37e11610064578063df15c37e146105b4578063ed84fc91146105df578063f78fff4c146105f6578063f7f5c3dd14610621576101ca565b8063cf72f71814610547578063d53c1f0a14610572578063def6c81d14610589576101ca565b806394539467116100c657806394539467146104bc578063ba3e9c12146104e7578063be3d802014610512578063c1af57851461053d576101ca565b80637ef82d4c1461043b5780638b5b9ccc1461046657806391ad27b414610491576101ca565b806347067a581161015957806364d92b241161013357806364d92b241461036a5780636b68c03c146103a75780636e04ff0d146103d25780636e9960c314610410576101ca565b806347067a58146102e957806353a2c19a146103145780635f1b0fd81461033f576101ca565b8063320229eb11610195578063320229eb146102535780633e413bee1461027e57806344b815ef146102a95780634585e33b146102c0576101ca565b80630b08c51e146101d45780630c67686f146101ff5780631fe543e31461022a576101ca565b366101ca576101c861064c565b005b6101d261064c565b005b3480156101e057600080fd5b506101e96108dc565b6040516101f69190612403565b60405180910390f35b34801561020b57600080fd5b506102146108e6565b6040516102219190612439565b60405180910390f35b34801561023657600080fd5b50610251600480360381019061024c91906125ed565b6108fd565b005b34801561025f57600080fd5b506102686109bd565b6040516102759190612403565b60405180910390f35b34801561028a57600080fd5b506102936109c7565b6040516102a091906126c8565b60405180910390f35b3480156102b557600080fd5b506102be6109ed565b005b3480156102cc57600080fd5b506102e760048036038101906102e29190612798565b610ae9565b005b3480156102f557600080fd5b506102fe611116565b60405161030b9190612403565b60405180910390f35b34801561032057600080fd5b5061032961111f565b6040516103369190612403565b60405180910390f35b34801561034b57600080fd5b5061035461112e565b6040516103619190612403565b60405180910390f35b34801561037657600080fd5b50610391600480360381019061038c919061281f565b61113b565b60405161039e9190612403565b60405180910390f35b3480156103b357600080fd5b506103bc611184565b6040516103c99190612403565b60405180910390f35b3480156103de57600080fd5b506103f960048036038101906103f49190612798565b6111ad565b6040516104079291906128cb565b60405180910390f35b34801561041c57600080fd5b50610425611396565b604051610432919061290a565b60405180910390f35b34801561044757600080fd5b506104506113be565b60405161045d9190612403565b60405180910390f35b34801561047257600080fd5b5061047b6113c8565b60405161048891906129e3565b60405180910390f35b34801561049d57600080fd5b506104a6611456565b6040516104b39190612403565b60405180910390f35b3480156104c857600080fd5b506104d161147e565b6040516104de9190612a26565b60405180910390f35b3480156104f357600080fd5b506104fc6114a4565b6040516105099190612a62565b60405180910390f35b34801561051e57600080fd5b506105276114ca565b6040516105349190612403565b60405180910390f35b61054561064c565b005b34801561055357600080fd5b5061055c6114f2565b6040516105699190612403565b60405180910390f35b34801561057e57600080fd5b5061058761151a565b005b34801561059557600080fd5b5061059e6118f9565b6040516105ab9190612403565b60405180910390f35b3480156105c057600080fd5b506105c96119a1565b6040516105d691906129e3565b60405180910390f35b3480156105eb57600080fd5b506105f4611a2f565b005b34801561060257600080fd5b5061060b611b5a565b6040516106189190612aa8565b60405180910390f35b34801561062d57600080fd5b50610636611bfd565b6040516106439190612403565b60405180910390f35b600060038111156106605761065f612ac3565b5b600960009054906101000a900460ff16600381111561068257610681612ac3565b5b146106b9576040517f5bc17e3b00000000000000000000000000000000000000000000000000000000815260040160405180910390fd5b7f00000000000000000000000000000000000000000000000000000000000000003414610712576040517f9654d67a00000000000000000000000000000000000000000000000000000000815260040160405180910390fd5b6001600660003373ffffffffffffffffffffffffffffffffffffffff1673ffffffffffffffffffffffffffffffffffffffff16815260200190815260200160002060008282546107629190612b21565b9250508190555060016005600082825461077c9190612b21565b925050819055506008339080600181540180825580915050600190039060005260206000200160009091909190916101000a81548173ffffffffffffffffffffffffffffffffffffffff021916908373ffffffffffffffffffffffffffffffffffffffff160217905550600960029054906101000a900473ffffffffffffffffffffffffffffffffffffffff1673ffffffffffffffffffffffffffffffffffffffff1663a9059cbb33670de0b6b3a76400006040518363ffffffff1660e01b815260040161084b929190612b90565b6020604051808303816000875af115801561086a573d6000803e3d6000fd5b505050506040513d601f19601f8201168201806040525081019061088e9190612be5565b50610897611c07565b3373ffffffffffffffffffffffffffffffffffffffff167f4c72b57c1ca715219cf2c7be9edc8a3ea19dfb9a76fb7a05e2a8062a027ee97060405160405180910390a2565b6000600154905090565b6000600960019054906101000a900460ff16905090565b7f000000000000000000000000000000000000000000000000000000000000000073ffffffffffffffffffffffffffffffffffffffff163373ffffffffffffffffffffffffffffffffffffffff16146109af57337f00000000000000000000000000000000000000000000000000000000000000006040517f1cf993f40000000000000000000000000000000000000000000000000000000081526004016109a6929190612c12565b60405180910390fd5b6109b98282611e83565b5050565b6000600254905090565b600a60009054906101000a900473ffffffffffffffffffffffffffffffffffffffff1681565b3373ffffffffffffffffffffffffffffffffffffffff167f000000000000000000000000000000000000000000000000000000000000000073ffffffffffffffffffffffffffffffffffffffff1614610a72576040517fc62447dd00000000000000000000000000000000000000000000000000000000815260040160405180910390fd5b60006003811115610a8657610a85612ac3565b5b600960009054906101000a900460ff166003811115610aa857610aa7612ac3565b5b14610adf576040517f5bc17e3b00000000000000000000000000000000000000000000000000000000815260040160405180910390fd5b610ae7612051565b565b6000610af4826111ad565b50905080610b635747600880549050600960009054906101000a900460ff166003811115610b2557610b24612ac3565b5b6040517fa9e3cfef000000000000000000000000000000000000000000000000000000008152600401610b5a93929190612c3b565b60405180910390fd5b7f5fe7f977e71dba2ea1a68e21057beebb9be2ac30c6410aa38d4f3fbe41dcffd2828051906020012003610d5157610b9961223c565b7f00000000000000000000000000000000000000000000000000000000000000006000819055506001600960006101000a81548160ff02191690836003811115610be657610be5612ac3565b5b021790555060007f000000000000000000000000000000000000000000000000000000000000000073ffffffffffffffffffffffffffffffffffffffff16635d3b1d307f00000000000000000000000000000000000000000000000000000000000000007f000000000000000000000000000000000000000000000000000000000000000060037f000000000000000000000000000000000000000000000000000000000000000060016040518663ffffffff1660e01b8152600401610cb0959493929190612cea565b6020604051808303816000875af1158015610ccf573d6000803e3d6000fd5b505050506040513d601f19601f82011682018060405250810190610cf39190612d52565b9050807f302e4abbbf85f09e8c1a81aaabf5f64a2dca99aa646ca90b6b6bf470e4148a7e60405160405180910390a2427f23a03086cfdfde34c6b0dc0b14076796698c6dd9685c15eadf6dd30add6b835d60405160405180910390a2505b7ff2ee15ea639b73fa3db9b34a245bdfa015c260c598b211bf05a1ecc4b3e3b4f28280519060200120036110835760007f0000000000000000000000000000000000000000000000000000000000000000600554610daf9190612d7f565b90506000610dbb6118f9565b905081811115610edc578181610dd19190612dc1565b6003819055506000600a60009054906101000a900473ffffffffffffffffffffffffffffffffffffffff1673ffffffffffffffffffffffffffffffffffffffff1663a9059cbb600760009054906101000a900473ffffffffffffffffffffffffffffffffffffffff166003546040518363ffffffff1660e01b8152600401610e5a929190612df5565b6020604051808303816000875af1158015610e79573d6000803e3d6000fd5b505050506040513d601f19601f82011682018060405250810190610e9d9190612be5565b905080610ed6576040517f12a6c12600000000000000000000000000000000000000000000000000000000815260040160405180910390fd5b50610ee5565b60006003819055505b600067ffffffffffffffff811115610f0057610eff6124aa565b5b604051908082528060200260200182016040528015610f2e5781602001602082028036833780820191505090505b5060089080519060200190610f44929190612343565b506000600760009054906101000a900473ffffffffffffffffffffffffffffffffffffffff1690506000600760006101000a81548173ffffffffffffffffffffffffffffffffffffffff021916908373ffffffffffffffffffffffffffffffffffffffff1602179055506003600960006101000a81548160ff02191690836003811115610fd457610fd3612ac3565b5b02179055507f0000000000000000000000000000000000000000000000000000000000000000426110059190612b21565b600181905550426003548273ffffffffffffffffffffffffffffffffffffffff167f7e57d825a2478cc8123a008d7d1e20c0f6e8cbca89a7bc100c9b05ecb3698deb60405160405180910390a4427f2bb9761672d46a3362a19185b7536568640baf057b358b6ebd118c1006c90ea660405160405180910390a25050505b7f69c322e3248a5dfc29d73c5b0553b0185a35cd5bb6386747517ef7e53b15e287828051906020012003611112576000600960006101000a81548160ff021916908360038111156110d7576110d6612ac3565b5b02179055506110e4612051565b427f833a8c78cd852c16da367919643d7a5496863c4cd4ea7ceff7a173b34fe9695260405160405180910390a25b5050565b60008054905090565b6000600163ffffffff16905090565b6000600361ffff16905090565b6000600660008373ffffffffffffffffffffffffffffffffffffffff1673ffffffffffffffffffffffffffffffffffffffff168152602001908152602001600020549050919050565b6000600960009054906101000a900460ff1660038111156111a8576111a7612ac3565b5b905090565b600060607f5fe7f977e71dba2ea1a68e21057beebb9be2ac30c6410aa38d4f3fbe41dcffd283805190602001200361125a5760008060038111156111f4576111f3612ac3565b5b600960009054906101000a900460ff16600381111561121657611215612ac3565b5b14905060008054421190506000806008805490501190506000804711905083801561123e5750825b80156112475750815b80156112505750805b9550869450505050505b7ff2ee15ea639b73fa3db9b34a245bdfa015c260c598b211bf05a1ecc4b3e3b4f283805190602001200361130d5760006002600381111561129e5761129d612ac3565b5b600960009054906101000a900460ff1660038111156112c0576112bf612ac3565b5b1490506000806112ce6118f9565b1190506000806112dc611b5a565b6fffffffffffffffffffffffffffffffff161490508280156112fb5750815b80156113045750805b94508593505050505b7f69c322e3248a5dfc29d73c5b0553b0185a35cd5bb6386747517ef7e53b15e2878380519060200120036113915760006003808111156113505761134f612ac3565b5b600960009054906101000a900460ff16600381111561137257611371612ac3565b5b149050600060015442101590508180156113895750805b935084925050505b915091565b60007f0000000000000000000000000000000000000000000000000000000000000000905090565b6000600354905090565b6060600880548060200260200160405190810160405280929190818152602001828054801561144c57602002820191906000526020600020905b8160009054906101000a900473ffffffffffffffffffffffffffffffffffffffff1673ffffffffffffffffffffffffffffffffffffffff1681526020019060010190808311611402575b5050505050905090565b60007f0000000000000000000000000000000000000000000000000000000000000000905090565b600960029054906101000a900473ffffffffffffffffffffffffffffffffffffffff1681565b600b60009054906101000a900473ffffffffffffffffffffffffffffffffffffffff1681565b60007f0000000000000000000000000000000000000000000000000000000000000000905090565b60007f0000000000000000000000000000000000000000000000000000000000000000905090565b60038081111561152d5761152c612ac3565b5b600960009054906101000a900460ff16600381111561154f5761154e612ac3565b5b14611586576040517f0496cb0e00000000000000000000000000000000000000000000000000000000815260040160405180910390fd5b6000600660003373ffffffffffffffffffffffffffffffffffffffff1673ffffffffffffffffffffffffffffffffffffffff16815260200190815260200160002054905060008103611604576040517fb997093000000000000000000000000000000000000000000000000000000000815260040160405180910390fd5b6000670de0b6b3a76400008261161a9190612d7f565b90506000600960029054906101000a900473ffffffffffffffffffffffffffffffffffffffff1673ffffffffffffffffffffffffffffffffffffffff166323b872dd3330856040518463ffffffff1660e01b815260040161167d93929190612e1e565b6020604051808303816000875af115801561169c573d6000803e3d6000fd5b505050506040513d601f19601f820116820180604052508101906116c09190612be5565b9050806117065730826040517fb5aa8b750000000000000000000000000000000000000000000000000000000081526004016116fd929190612df5565b60405180910390fd5b60007f0000000000000000000000000000000000000000000000000000000000000000846117349190612d7f565b90506000600a60009054906101000a900473ffffffffffffffffffffffffffffffffffffffff1673ffffffffffffffffffffffffffffffffffffffff1663a9059cbb33846040518363ffffffff1660e01b8152600401611795929190612df5565b6020604051808303816000875af11580156117b4573d6000803e3d6000fd5b505050506040513d601f19601f820116820180604052508101906117d89190612be5565b905080611811576040517fc61e404300000000000000000000000000000000000000000000000000000000815260040160405180910390fd5b600660003373ffffffffffffffffffffffffffffffffffffffff1673ffffffffffffffffffffffffffffffffffffffff16815260200190815260200160002054600560008282546118629190612dc1565b925050819055506000600660003373ffffffffffffffffffffffffffffffffffffffff1673ffffffffffffffffffffffffffffffffffffffff16815260200190815260200160002081905550813373ffffffffffffffffffffffffffffffffffffffff167f98824d89d47225910d3e61aa38b640d29d58b43e2dc47b4d986a588c88e0a2a860405160405180910390a35050505050565b600080600a60009054906101000a900473ffffffffffffffffffffffffffffffffffffffff1673ffffffffffffffffffffffffffffffffffffffff166370a08231306040518263ffffffff1660e01b8152600401611957919061290a565b602060405180830381865afa158015611974573d6000803e3d6000fd5b505050506040513d601f19601f820116820180604052508101906119989190612d52565b90508091505090565b60606004805480602002602001604051908101604052809291908181526020018280548015611a2557602002820191906000526020600020905b8160009054906101000a900473ffffffffffffffffffffffffffffffffffffffff1673ffffffffffffffffffffffffffffffffffffffff16815260200190600101908083116119db575b5050505050905090565b3373ffffffffffffffffffffffffffffffffffffffff167f000000000000000000000000000000000000000000000000000000000000000073ffffffffffffffffffffffffffffffffffffffff1614611ab4576040517fc62447dd00000000000000000000000000000000000000000000000000000000815260040160405180910390fd5b60003373ffffffffffffffffffffffffffffffffffffffff1647604051611ada90612e86565b60006040518083038185875af1925050503d8060008114611b17576040519150601f19603f3d011682016040523d82523d6000602084013e611b1c565b606091505b5050905080611b57576040517feaced0f800000000000000000000000000000000000000000000000000000000815260040160405180910390fd5b50565b6000600b60009054906101000a900473ffffffffffffffffffffffffffffffffffffffff1673ffffffffffffffffffffffffffffffffffffffff166370a08231306040518263ffffffff1660e01b8152600401611bb7919061290a565b602060405180830381865afa158015611bd4573d6000803e3d6000fd5b505050506040513d601f19601f82011682018060405250810190611bf89190612d52565b905090565b6000600554905090565b6000611c116118f9565b90506000600a60009054906101000a900473ffffffffffffffffffffffffffffffffffffffff1673ffffffffffffffffffffffffffffffffffffffff166339509351600b60009054906101000a900473ffffffffffffffffffffffffffffffffffffffff16846040518363ffffffff1660e01b8152600401611c94929190612df5565b6020604051808303816000875af1158015611cb3573d6000803e3d6000fd5b505050506040513d601f19601f82011682018060405250810190611cd79190612be5565b905080611d10576040517fc21994d800000000000000000000000000000000000000000000000000000000815260040160405180910390fd5b6000600960019054906101000a900460ff1615611d7c578290506000600960016101000a81548160ff0219169083151502179055507f000000000000000000000000000000000000000000000000000000000000000042611d719190612b21565b600081905550611da0565b7f000000000000000000000000000000000000000000000000000000000000000090505b600b60009054906101000a900473ffffffffffffffffffffffffffffffffffffffff1673ffffffffffffffffffffffffffffffffffffffff1663f2b9fdb8600a60009054906101000a900473ffffffffffffffffffffffffffffffffffffffff16836040518363ffffffff1660e01b8152600401611e1f929190612df5565b600060405180830381600087803b158015611e3957600080fd5b505af1158015611e4d573d6000803e3d6000fd5b50505050807f49a22ceda38ca91b4ac62806b9736d04ca01ad1328269bacba067c9b3a26ab5b60405160405180910390a2505050565b600060088054905082600081518110611e9f57611e9e612e9b565b5b6020026020010151611eb19190612ef9565b9050600060088281548110611ec957611ec8612e9b565b5b9060005260206000200160009054906101000a900473ffffffffffffffffffffffffffffffffffffffff16905080600760006101000a81548173ffffffffffffffffffffffffffffffffffffffff021916908373ffffffffffffffffffffffffffffffffffffffff1602179055506004819080600181540180825580915050600190039060005260206000200160009091909190916101000a81548173ffffffffffffffffffffffffffffffffffffffff021916908373ffffffffffffffffffffffffffffffffffffffff1602179055506002600960006101000a81548160ff02191690836003811115611fc057611fbf612ac3565b5b02179055507f9b75caaddd29bd1950e2ac37b33a686044e058991e976bdfa81962621ab6211f600760009054906101000a900473ffffffffffffffffffffffffffffffffffffffff16604051612016919061290a565b60405180910390a1427f3d6f9ab1faffa3612ae6e56dd29188d8b07bd31769c1af616d0adadf7a28d99260405160405180910390a250505050565b600061205b6118f9565b90506000600a60009054906101000a900473ffffffffffffffffffffffffffffffffffffffff1673ffffffffffffffffffffffffffffffffffffffff166339509351600b60009054906101000a900473ffffffffffffffffffffffffffffffffffffffff16846040518363ffffffff1660e01b81526004016120de929190612df5565b6020604051808303816000875af11580156120fd573d6000803e3d6000fd5b505050506040513d601f19601f820116820180604052508101906121219190612be5565b90508061215a576040517fc21994d800000000000000000000000000000000000000000000000000000000815260040160405180910390fd5b600b60009054906101000a900473ffffffffffffffffffffffffffffffffffffffff1673ffffffffffffffffffffffffffffffffffffffff1663f2b9fdb8600a60009054906101000a900473ffffffffffffffffffffffffffffffffffffffff16846040518363ffffffff1660e01b81526004016121d9929190612df5565b600060405180830381600087803b1580156121f357600080fd5b505af1158015612207573d6000803e3d6000fd5b50505050817f49a22ceda38ca91b4ac62806b9736d04ca01ad1328269bacba067c9b3a26ab5b60405160405180910390a25050565b6000612246611b5a565b9050600b60009054906101000a900473ffffffffffffffffffffffffffffffffffffffff1673ffffffffffffffffffffffffffffffffffffffff1663f3fef3a3600a60009054906101000a900473ffffffffffffffffffffffffffffffffffffffff16836040518363ffffffff1660e01b81526004016122c7929190612f5b565b600060405180830381600087803b1580156122e157600080fd5b505af11580156122f5573d6000803e3d6000fd5b505050506001600960016101000a81548160ff0219169083151502179055507fbd72d74ce98924a1669bad84833a4a326af93dcf34b6e9008a73432477c9a58d60405160405180910390a150565b8280548282559060005260206000209081019282156123bc579160200282015b828111156123bb5782518260006101000a81548173ffffffffffffffffffffffffffffffffffffffff021916908373ffffffffffffffffffffffffffffffffffffffff16021790555091602001919060010190612363565b5b5090506123c991906123cd565b5090565b5b808211156123e65760008160009055506001016123ce565b5090565b6000819050919050565b6123fd816123ea565b82525050565b600060208201905061241860008301846123f4565b92915050565b60008115159050919050565b6124338161241e565b82525050565b600060208201905061244e600083018461242a565b92915050565b6000604051905090565b600080fd5b600080fd5b612471816123ea565b811461247c57600080fd5b50565b60008135905061248e81612468565b92915050565b600080fd5b6000601f19601f8301169050919050565b7f4e487b7100000000000000000000000000000000000000000000000000000000600052604160045260246000fd5b6124e282612499565b810181811067ffffffffffffffff82111715612501576125006124aa565b5b80604052505050565b6000612514612454565b905061252082826124d9565b919050565b600067ffffffffffffffff8211156125405761253f6124aa565b5b602082029050602081019050919050565b600080fd5b600061256961256484612525565b61250a565b9050808382526020820190506020840283018581111561258c5761258b612551565b5b835b818110156125b557806125a1888261247f565b84526020840193505060208101905061258e565b5050509392505050565b600082601f8301126125d4576125d3612494565b5b81356125e4848260208601612556565b91505092915050565b600080604083850312156126045761260361245e565b5b60006126128582860161247f565b925050602083013567ffffffffffffffff81111561263357612632612463565b5b61263f858286016125bf565b9150509250929050565b600073ffffffffffffffffffffffffffffffffffffffff82169050919050565b6000819050919050565b600061268e61268961268484612649565b612669565b612649565b9050919050565b60006126a082612673565b9050919050565b60006126b282612695565b9050919050565b6126c2816126a7565b82525050565b60006020820190506126dd60008301846126b9565b92915050565b600080fd5b600067ffffffffffffffff821115612703576127026124aa565b5b61270c82612499565b9050602081019050919050565b82818337600083830152505050565b600061273b612736846126e8565b61250a565b905082815260208101848484011115612757576127566126e3565b5b612762848285612719565b509392505050565b600082601f83011261277f5761277e612494565b5b813561278f848260208601612728565b91505092915050565b6000602082840312156127ae576127ad61245e565b5b600082013567ffffffffffffffff8111156127cc576127cb612463565b5b6127d88482850161276a565b91505092915050565b60006127ec82612649565b9050919050565b6127fc816127e1565b811461280757600080fd5b50565b600081359050612819816127f3565b92915050565b6000602082840312156128355761283461245e565b5b60006128438482850161280a565b91505092915050565b600081519050919050565b600082825260208201905092915050565b60005b8381101561288657808201518184015260208101905061286b565b60008484015250505050565b600061289d8261284c565b6128a78185612857565b93506128b7818560208601612868565b6128c081612499565b840191505092915050565b60006040820190506128e0600083018561242a565b81810360208301526128f28184612892565b90509392505050565b612904816127e1565b82525050565b600060208201905061291f60008301846128fb565b92915050565b600081519050919050565b600082825260208201905092915050565b6000819050602082019050919050565b61295a816127e1565b82525050565b600061296c8383612951565b60208301905092915050565b6000602082019050919050565b600061299082612925565b61299a8185612930565b93506129a583612941565b8060005b838110156129d65781516129bd8882612960565b97506129c883612978565b9250506001810190506129a9565b5085935050505092915050565b600060208201905081810360008301526129fd8184612985565b905092915050565b6000612a1082612695565b9050919050565b612a2081612a05565b82525050565b6000602082019050612a3b6000830184612a17565b92915050565b6000612a4c82612695565b9050919050565b612a5c81612a41565b82525050565b6000602082019050612a776000830184612a53565b92915050565b60006fffffffffffffffffffffffffffffffff82169050919050565b612aa281612a7d565b82525050565b6000602082019050612abd6000830184612a99565b92915050565b7f4e487b7100000000000000000000000000000000000000000000000000000000600052602160045260246000fd5b7f4e487b7100000000000000000000000000000000000000000000000000000000600052601160045260246000fd5b6000612b2c826123ea565b9150612b37836123ea565b9250828201905080821115612b4f57612b4e612af2565b5b92915050565b6000819050919050565b6000612b7a612b75612b7084612b55565b612669565b6123ea565b9050919050565b612b8a81612b5f565b82525050565b6000604082019050612ba560008301856128fb565b612bb26020830184612b81565b9392505050565b612bc28161241e565b8114612bcd57600080fd5b50565b600081519050612bdf81612bb9565b92915050565b600060208284031215612bfb57612bfa61245e565b5b6000612c0984828501612bd0565b91505092915050565b6000604082019050612c2760008301856128fb565b612c3460208301846128fb565b9392505050565b6000606082019050612c5060008301866123f4565b612c5d60208301856123f4565b612c6a60408301846123f4565b949350505050565b6000819050919050565b612c8581612c72565b82525050565b600067ffffffffffffffff82169050919050565b612ca881612c8b565b82525050565b600061ffff82169050919050565b612cc581612cae565b82525050565b600063ffffffff82169050919050565b612ce481612ccb565b82525050565b600060a082019050612cff6000830188612c7c565b612d0c6020830187612c9f565b612d196040830186612cbc565b612d266060830185612cdb565b612d336080830184612cdb565b9695505050505050565b600081519050612d4c81612468565b92915050565b600060208284031215612d6857612d6761245e565b5b6000612d7684828501612d3d565b91505092915050565b6000612d8a826123ea565b9150612d95836123ea565b9250828202612da3816123ea565b91508282048414831517612dba57612db9612af2565b5b5092915050565b6000612dcc826123ea565b9150612dd7836123ea565b9250828203905081811115612def57612dee612af2565b5b92915050565b6000604082019050612e0a60008301856128fb565b612e1760208301846123f4565b9392505050565b6000606082019050612e3360008301866128fb565b612e4060208301856128fb565b612e4d60408301846123f4565b949350505050565b600081905092915050565b50565b6000612e70600083612e55565b9150612e7b82612e60565b600082019050919050565b6000612e9182612e63565b9150819050919050565b7f4e487b7100000000000000000000000000000000000000000000000000000000600052603260045260246000fd5b7f4e487b7100000000000000000000000000000000000000000000000000000000600052601260045260246000fd5b6000612f04826123ea565b9150612f0f836123ea565b925082612f1f57612f1e612eca565b5b828206905092915050565b6000612f45612f40612f3b84612a7d565b612669565b6123ea565b9050919050565b612f5581612f2a565b82525050565b6000604082019050612f7060008301856128fb565b612f7d6020830184612f4c565b939250505056fea2646970667358221220a948b019dc0eb0bd17e4d0bc51c28fcf94f318f73647a914dad068d5de0e4cb164736f6c6343000811003360806040523480156200001157600080fd5b506040516200241538038062002415833981810160405281019062000037919062000392565b6040518060400160405280600c81526020017f4c6f7474657279546f6b656e00000000000000000000000000000000000000008152506040518060400160405280600381526020017f4c544b00000000000000000000000000000000000000000000000000000000008152508160039081620000b4919062000634565b508060049081620000c6919062000634565b505050620000e9620000dd6200010260201b60201c565b6200010a60201b60201c565b620000fb3382620001d060201b60201c565b5062000836565b600033905090565b6000600560009054906101000a900473ffffffffffffffffffffffffffffffffffffffff16905081600560006101000a81548173ffffffffffffffffffffffffffffffffffffffff021916908373ffffffffffffffffffffffffffffffffffffffff1602179055508173ffffffffffffffffffffffffffffffffffffffff168173ffffffffffffffffffffffffffffffffffffffff167f8be0079c531659141344cd1fd0a4f28419497f9722a3daafe3b4186f6b6457e060405160405180910390a35050565b600073ffffffffffffffffffffffffffffffffffffffff168273ffffffffffffffffffffffffffffffffffffffff160362000242576040517f08c379a000000000000000000000000000000000000000000000000000000000815260040162000239906200077c565b60405180910390fd5b62000256600083836200034860201b60201c565b80600260008282546200026a9190620007cd565b92505081905550806000808473ffffffffffffffffffffffffffffffffffffffff1673ffffffffffffffffffffffffffffffffffffffff1681526020019081526020016000206000828254620002c19190620007cd565b925050819055508173ffffffffffffffffffffffffffffffffffffffff16600073ffffffffffffffffffffffffffffffffffffffff167fddf252ad1be2c89b69c2b068fc378daa952ba7f163c4a11628f55a4df523b3ef8360405162000328919062000819565b60405180910390a362000344600083836200034d60201b60201c565b5050565b505050565b505050565b600080fd5b6000819050919050565b6200036c8162000357565b81146200037857600080fd5b50565b6000815190506200038c8162000361565b92915050565b600060208284031215620003ab57620003aa62000352565b5b6000620003bb848285016200037b565b91505092915050565b600081519050919050565b7f4e487b7100000000000000000000000000000000000000000000000000000000600052604160045260246000fd5b7f4e487b7100000000000000000000000000000000000000000000000000000000600052602260045260246000fd5b600060028204905060018216806200044657607f821691505b6020821081036200045c576200045b620003fe565b5b50919050565b60008190508160005260206000209050919050565b60006020601f8301049050919050565b600082821b905092915050565b600060088302620004c67fffffffffffffffffffffffffffffffffffffffffffffffffffffffffffffffff8262000487565b620004d2868362000487565b95508019841693508086168417925050509392505050565b6000819050919050565b6000620005156200050f620005098462000357565b620004ea565b62000357565b9050919050565b6000819050919050565b6200053183620004f4565b6200054962000540826200051c565b84845462000494565b825550505050565b600090565b6200056062000551565b6200056d81848462000526565b505050565b5b8181101562000595576200058960008262000556565b60018101905062000573565b5050565b601f821115620005e457620005ae8162000462565b620005b98462000477565b81016020851015620005c9578190505b620005e1620005d88562000477565b83018262000572565b50505b505050565b600082821c905092915050565b60006200060960001984600802620005e9565b1980831691505092915050565b6000620006248383620005f6565b9150826002028217905092915050565b6200063f82620003c4565b67ffffffffffffffff8111156200065b576200065a620003cf565b5b6200066782546200042d565b6200067482828562000599565b600060209050601f831160018114620006ac576000841562000697578287015190505b620006a3858262000616565b86555062000713565b601f198416620006bc8662000462565b60005b82811015620006e657848901518255600182019150602085019450602081019050620006bf565b8683101562000706578489015162000702601f891682620005f6565b8355505b6001600288020188555050505b505050505050565b600082825260208201905092915050565b7f45524332303a206d696e7420746f20746865207a65726f206164647265737300600082015250565b600062000764601f836200071b565b915062000771826200072c565b602082019050919050565b60006020820190508181036000830152620007978162000755565b9050919050565b7f4e487b7100000000000000000000000000000000000000000000000000000000600052601160045260246000fd5b6000620007da8262000357565b9150620007e78362000357565b92508282019050808211156200080257620008016200079e565b5b92915050565b620008138162000357565b82525050565b600060208201905062000830600083018462000808565b92915050565b611bcf80620008466000396000f3fe608060405234801561001057600080fd5b506004361061010b5760003560e01c806370a08231116100a257806395d89b411161007157806395d89b41146102a6578063a457c2d7146102c4578063a9059cbb146102f4578063dd62ed3e14610324578063f2fde38b146103545761010b565b806370a0823114610232578063715018a61461026257806379cc67901461026c5780638da5cb5b146102885761010b565b8063313ce567116100de578063313ce567146101ac57806339509351146101ca57806340c10f19146101fa57806342966c68146102165761010b565b806306fdde0314610110578063095ea7b31461012e57806318160ddd1461015e57806323b872dd1461017c575b600080fd5b610118610370565b6040516101259190611193565b60405180910390f35b6101486004803603810190610143919061124e565b610402565b60405161015591906112a9565b60405180910390f35b610166610425565b60405161017391906112d3565b60405180910390f35b610196600480360381019061019191906112ee565b61042f565b6040516101a391906112a9565b60405180910390f35b6101b461045e565b6040516101c1919061135d565b60405180910390f35b6101e460048036038101906101df919061124e565b610467565b6040516101f191906112a9565b60405180910390f35b610214600480360381019061020f919061124e565b61049e565b005b610230600480360381019061022b9190611378565b6104b4565b005b61024c600480360381019061024791906113a5565b6104c8565b60405161025991906112d3565b60405180910390f35b61026a610510565b005b6102866004803603810190610281919061124e565b610524565b005b610290610544565b60405161029d91906113e1565b60405180910390f35b6102ae61056e565b6040516102bb9190611193565b60405180910390f35b6102de60048036038101906102d9919061124e565b610600565b6040516102eb91906112a9565b60405180910390f35b61030e6004803603810190610309919061124e565b610677565b60405161031b91906112a9565b60405180910390f35b61033e600480360381019061033991906113fc565b61069a565b60405161034b91906112d3565b60405180910390f35b61036e600480360381019061036991906113a5565b610721565b005b60606003805461037f9061146b565b80601f01602080910402602001604051908101604052809291908181526020018280546103ab9061146b565b80156103f85780601f106103cd576101008083540402835291602001916103f8565b820191906000526020600020905b8154815290600101906020018083116103db57829003601f168201915b5050505050905090565b60008061040d6107a4565b905061041a8185856107ac565b600191505092915050565b6000600254905090565b60008061043a6107a4565b9050610447858285610975565b610452858585610a01565b60019150509392505050565b60006012905090565b6000806104726107a4565b9050610493818585610484858961069a565b61048e91906114cb565b6107ac565b600191505092915050565b6104a6610c80565b6104b08282610cfe565b5050565b6104c56104bf6107a4565b82610e5d565b50565b60008060008373ffffffffffffffffffffffffffffffffffffffff1673ffffffffffffffffffffffffffffffffffffffff168152602001908152602001600020549050919050565b610518610c80565b6105226000611033565b565b610536826105306107a4565b83610975565b6105408282610e5d565b5050565b6000600560009054906101000a900473ffffffffffffffffffffffffffffffffffffffff16905090565b60606004805461057d9061146b565b80601f01602080910402602001604051908101604052809291908181526020018280546105a99061146b565b80156105f65780601f106105cb576101008083540402835291602001916105f6565b820191906000526020600020905b8154815290600101906020018083116105d957829003601f168201915b5050505050905090565b60008061060b6107a4565b90506000610619828661069a565b90508381101561065e576040517f08c379a000000000000000000000000000000000000000000000000000000000815260040161065590611571565b60405180910390fd5b61066b82868684036107ac565b60019250505092915050565b6000806106826107a4565b905061068f818585610a01565b600191505092915050565b6000600160008473ffffffffffffffffffffffffffffffffffffffff1673ffffffffffffffffffffffffffffffffffffffff16815260200190815260200160002060008373ffffffffffffffffffffffffffffffffffffffff1673ffffffffffffffffffffffffffffffffffffffff16815260200190815260200160002054905092915050565b610729610c80565b600073ffffffffffffffffffffffffffffffffffffffff168173ffffffffffffffffffffffffffffffffffffffff1603610798576040517f08c379a000000000000000000000000000000000000000000000000000000000815260040161078f90611603565b60405180910390fd5b6107a181611033565b50565b600033905090565b600073ffffffffffffffffffffffffffffffffffffffff168373ffffffffffffffffffffffffffffffffffffffff160361081b576040517f08c379a000000000000000000000000000000000000000000000000000000000815260040161081290611695565b60405180910390fd5b600073ffffffffffffffffffffffffffffffffffffffff168273ffffffffffffffffffffffffffffffffffffffff160361088a576040517f08c379a000000000000000000000000000000000000000000000000000000000815260040161088190611727565b60405180910390fd5b80600160008573ffffffffffffffffffffffffffffffffffffffff1673ffffffffffffffffffffffffffffffffffffffff16815260200190815260200160002060008473ffffffffffffffffffffffffffffffffffffffff1673ffffffffffffffffffffffffffffffffffffffff168152602001908152602001600020819055508173ffffffffffffffffffffffffffffffffffffffff168373ffffffffffffffffffffffffffffffffffffffff167f8c5be1e5ebec7d5bd14f71427d1e84f3dd0314c0f7b2291e5b200ac8c7c3b9258360405161096891906112d3565b60405180910390a3505050565b6000610981848461069a565b90507fffffffffffffffffffffffffffffffffffffffffffffffffffffffffffffffff81146109fb57818110156109ed576040517f08c379a00000000000000000000000000000000000000000000000000000000081526004016109e490611793565b60405180910390fd5b6109fa84848484036107ac565b5b50505050565b600073ffffffffffffffffffffffffffffffffffffffff168373ffffffffffffffffffffffffffffffffffffffff1603610a70576040517f08c379a0000000000000000000000000000000000000000000000000000000008152600401610a6790611825565b60405180910390fd5b600073ffffffffffffffffffffffffffffffffffffffff168273ffffffffffffffffffffffffffffffffffffffff1603610adf576040517f08c379a0000000000000000000000000000000000000000000000000000000008152600401610ad6906118b7565b60405180910390fd5b610aea8383836110f9565b60008060008573ffffffffffffffffffffffffffffffffffffffff1673ffffffffffffffffffffffffffffffffffffffff16815260200190815260200160002054905081811015610b70576040517f08c379a0000000000000000000000000000000000000000000000000000000008152600401610b6790611949565b60405180910390fd5b8181036000808673ffffffffffffffffffffffffffffffffffffffff1673ffffffffffffffffffffffffffffffffffffffff16815260200190815260200160002081905550816000808573ffffffffffffffffffffffffffffffffffffffff1673ffffffffffffffffffffffffffffffffffffffff1681526020019081526020016000206000828254610c0391906114cb565b925050819055508273ffffffffffffffffffffffffffffffffffffffff168473ffffffffffffffffffffffffffffffffffffffff167fddf252ad1be2c89b69c2b068fc378daa952ba7f163c4a11628f55a4df523b3ef84604051610c6791906112d3565b60405180910390a3610c7a8484846110fe565b50505050565b610c886107a4565b73ffffffffffffffffffffffffffffffffffffffff16610ca6610544565b73ffffffffffffffffffffffffffffffffffffffff1614610cfc576040517f08c379a0000000000000000000000000000000000000000000000000000000008152600401610cf3906119b5565b60405180910390fd5b565b600073ffffffffffffffffffffffffffffffffffffffff168273ffffffffffffffffffffffffffffffffffffffff1603610d6d576040517f08c379a0000000000000000000000000000000000000000000000000000000008152600401610d6490611a21565b60405180910390fd5b610d79600083836110f9565b8060026000828254610d8b91906114cb565b92505081905550806000808473ffffffffffffffffffffffffffffffffffffffff1673ffffffffffffffffffffffffffffffffffffffff1681526020019081526020016000206000828254610de091906114cb565b925050819055508173ffffffffffffffffffffffffffffffffffffffff16600073ffffffffffffffffffffffffffffffffffffffff167fddf252ad1be2c89b69c2b068fc378daa952ba7f163c4a11628f55a4df523b3ef83604051610e4591906112d3565b60405180910390a3610e59600083836110fe565b5050565b600073ffffffffffffffffffffffffffffffffffffffff168273ffffffffffffffffffffffffffffffffffffffff1603610ecc576040517f08c379a0000000000000000000000000000000000000000000000000000000008152600401610ec390611ab3565b60405180910390fd5b610ed8826000836110f9565b60008060008473ffffffffffffffffffffffffffffffffffffffff1673ffffffffffffffffffffffffffffffffffffffff16815260200190815260200160002054905081811015610f5e576040517f08c379a0000000000000000000000000000000000000000000000000000000008152600401610f5590611b45565b60405180910390fd5b8181036000808573ffffffffffffffffffffffffffffffffffffffff1673ffffffffffffffffffffffffffffffffffffffff168152602001908152602001600020819055508160026000828254610fb59190611b65565b92505081905550600073ffffffffffffffffffffffffffffffffffffffff168373ffffffffffffffffffffffffffffffffffffffff167fddf252ad1be2c89b69c2b068fc378daa952ba7f163c4a11628f55a4df523b3ef8460405161101a91906112d3565b60405180910390a361102e836000846110fe565b505050565b6000600560009054906101000a900473ffffffffffffffffffffffffffffffffffffffff16905081600560006101000a81548173ffffffffffffffffffffffffffffffffffffffff021916908373ffffffffffffffffffffffffffffffffffffffff1602179055508173ffffffffffffffffffffffffffffffffffffffff168173ffffffffffffffffffffffffffffffffffffffff167f8be0079c531659141344cd1fd0a4f28419497f9722a3daafe3b4186f6b6457e060405160405180910390a35050565b505050565b505050565b600081519050919050565b600082825260208201905092915050565b60005b8381101561113d578082015181840152602081019050611122565b60008484015250505050565b6000601f19601f8301169050919050565b600061116582611103565b61116f818561110e565b935061117f81856020860161111f565b61118881611149565b840191505092915050565b600060208201905081810360008301526111ad818461115a565b905092915050565b600080fd5b600073ffffffffffffffffffffffffffffffffffffffff82169050919050565b60006111e5826111ba565b9050919050565b6111f5816111da565b811461120057600080fd5b50565b600081359050611212816111ec565b92915050565b6000819050919050565b61122b81611218565b811461123657600080fd5b50565b60008135905061124881611222565b92915050565b60008060408385031215611265576112646111b5565b5b600061127385828601611203565b925050602061128485828601611239565b9150509250929050565b60008115159050919050565b6112a38161128e565b82525050565b60006020820190506112be600083018461129a565b92915050565b6112cd81611218565b82525050565b60006020820190506112e860008301846112c4565b92915050565b600080600060608486031215611307576113066111b5565b5b600061131586828701611203565b935050602061132686828701611203565b925050604061133786828701611239565b9150509250925092565b600060ff82169050919050565b61135781611341565b82525050565b6000602082019050611372600083018461134e565b92915050565b60006020828403121561138e5761138d6111b5565b5b600061139c84828501611239565b91505092915050565b6000602082840312156113bb576113ba6111b5565b5b60006113c984828501611203565b91505092915050565b6113db816111da565b82525050565b60006020820190506113f660008301846113d2565b92915050565b60008060408385031215611413576114126111b5565b5b600061142185828601611203565b925050602061143285828601611203565b9150509250929050565b7f4e487b7100000000000000000000000000000000000000000000000000000000600052602260045260246000fd5b6000600282049050600182168061148357607f821691505b6020821081036114965761149561143c565b5b50919050565b7f4e487b7100000000000000000000000000000000000000000000000000000000600052601160045260246000fd5b60006114d682611218565b91506114e183611218565b92508282019050808211156114f9576114f861149c565b5b92915050565b7f45524332303a2064656372656173656420616c6c6f77616e63652062656c6f7760008201527f207a65726f000000000000000000000000000000000000000000000000000000602082015250565b600061155b60258361110e565b9150611566826114ff565b604082019050919050565b6000602082019050818103600083015261158a8161154e565b9050919050565b7f4f776e61626c653a206e6577206f776e657220697320746865207a65726f206160008201527f6464726573730000000000000000000000000000000000000000000000000000602082015250565b60006115ed60268361110e565b91506115f882611591565b604082019050919050565b6000602082019050818103600083015261161c816115e0565b9050919050565b7f45524332303a20617070726f76652066726f6d20746865207a65726f2061646460008201527f7265737300000000000000000000000000000000000000000000000000000000602082015250565b600061167f60248361110e565b915061168a82611623565b604082019050919050565b600060208201905081810360008301526116ae81611672565b9050919050565b7f45524332303a20617070726f766520746f20746865207a65726f20616464726560008201527f7373000000000000000000000000000000000000000000000000000000000000602082015250565b600061171160228361110e565b915061171c826116b5565b604082019050919050565b6000602082019050818103600083015261174081611704565b9050919050565b7f45524332303a20696e73756666696369656e7420616c6c6f77616e6365000000600082015250565b600061177d601d8361110e565b915061178882611747565b602082019050919050565b600060208201905081810360008301526117ac81611770565b9050919050565b7f45524332303a207472616e736665722066726f6d20746865207a65726f20616460008201527f6472657373000000000000000000000000000000000000000000000000000000602082015250565b600061180f60258361110e565b915061181a826117b3565b604082019050919050565b6000602082019050818103600083015261183e81611802565b9050919050565b7f45524332303a207472616e7366657220746f20746865207a65726f206164647260008201527f6573730000000000000000000000000000000000000000000000000000000000602082015250565b60006118a160238361110e565b91506118ac82611845565b604082019050919050565b600060208201905081810360008301526118d081611894565b9050919050565b7f45524332303a207472616e7366657220616d6f756e742065786365656473206260008201527f616c616e63650000000000000000000000000000000000000000000000000000602082015250565b600061193360268361110e565b915061193e826118d7565b604082019050919050565b6000602082019050818103600083015261196281611926565b9050919050565b7f4f776e61626c653a2063616c6c6572206973206e6f7420746865206f776e6572600082015250565b600061199f60208361110e565b91506119aa82611969565b602082019050919050565b600060208201905081810360008301526119ce81611992565b9050919050565b7f45524332303a206d696e7420746f20746865207a65726f206164647265737300600082015250565b6000611a0b601f8361110e565b9150611a16826119d5565b602082019050919050565b60006020820190508181036000830152611a3a816119fe565b9050919050565b7f45524332303a206275726e2066726f6d20746865207a65726f2061646472657360008201527f7300000000000000000000000000000000000000000000000000000000000000602082015250565b6000611a9d60218361110e565b9150611aa882611a41565b604082019050919050565b60006020820190508181036000830152611acc81611a90565b9050919050565b7f45524332303a206275726e20616d6f756e7420657863656564732062616c616e60008201527f6365000000000000000000000000000000000000000000000000000000000000602082015250565b6000611b2f60228361110e565b9150611b3a82611ad3565b604082019050919050565b60006020820190508181036000830152611b5e81611b22565b9050919050565b6000611b7082611218565b9150611b7b83611218565b9250828203905081811115611b9357611b9261149c565b5b9291505056fea2646970667358221220b8cd799b9c6e292c8594d97aa5a0826240b92052d1df49259480886dec8388e664736f6c63430008110033",
  "devdoc": {
    "author": "SiegfriedBz",
    "details": "This implements CompoundV3, and Chainlink VRF v2 & Chainlink Keeper (\"Automation\")",
    "kind": "dev",
    "methods": {
      "checkUpkeep(bytes)": {
        "details": "function called by the ChainLink Keeper (\"Automation\") nodes ChainLink Keeper look for \"upkeepNeeded\" to return true 3 possible paths -I. path 01 -- To return true the following is needed ---1. Lottery state == OPEN_TO_PLAY ---2. Lottery Time interval to Play has passed ---3. Lottery has >= 1player, and Lottery is funded ---4. ChainLink subscription has enough LINK -II. path 02 ---1. Lottery state == CALCULATING_WINNER_GAINS ---2. ---3. -II. path 03 -- To return true the following is needed ---1. Lottery state == OPEN_TO_WITHDRAW ---2. Lottery Time interval to WithDraw has Passed"
      },
      "performUpkeep(bytes)": {
        "details": "function called by the ChainLink Keeper (\"Automation\") nodes when checkUpkeep() returned true. 3 possible paths If upkeepNeeded is true: -I. from path 01: --I.1. Lottery calls Coumpound to transfer all available USDC => Lottery --I.2. update s_endPlayTime to prevent checkUpKeep path 01 to return true before next run --I.3. a request for randomness is made to ChainLink VRF --I.4. LotteryState switch => CALCULATING_WINNER_ADDRESS -II. from path 02: --II.1 --II.2 -III. from path 03: --III.1 LotteryState switch => OPEN_TO_PLAY --III.2 Supply Coumpound with ALL Lottery USDC balance to start generating interests"
      }
    },
    "title": "A sample No-Loss Lottery contract with CompoundV3 USDC Lending",
    "version": 1
  },
  "userdoc": {
    "kind": "user",
    "methods": {
      "adminApproveAndSupplyCompound()": {
        "notice": "function called by Admin, require Lottery state is OpenToPlay 1. called from front-end, first: Admin send USDC to Lottery 2. approve Compound for all current Lottery USDC balance 3. supply Compound with all current Lottery USDC balance"
      },
      "adminWithdrawETH()": {
        "notice": "function for Admin transfers Lottery ETH to Admin"
      },
      "enterLottery()": {
        "notice": "function called by Player note: this call contains 3 calls from front-end: 1. Player calls USDC contract to transfer i_lotteryTicketPrice USDC => Lottery 2. Player calls LTK contract to increase LTK allowance for Lottery. required for later Player call this.withdrawFromLottery() 3. Player calls Lottery to send i_lotteryFee ETH value => Lottery transfer 1 LTK Token to Player add Player to the players array add 1 ticket to Player playerToNumTickets mapping 3. internal call by Lottery: this.approveAndSupplyCompound()"
      },
      "getAdmin()": {
        "notice": "Getter returns the admin address"
      },
      "getEndPlayTime()": {
        "notice": "Getter for front end returns the current Lottery round endPlayTime"
      },
      "getEndWithDrawTime()": {
        "notice": "Getter for front end returns the current Lottery round endWithDrawTime"
      },
      "getInterval()": {
        "notice": "Getter for front end returns the Lottery round duration"
      },
      "getIsFirstPlayer()": {
        "notice": "Getter for front end"
      },
      "getLatestTimeStamp()": {
        "notice": "Getter for front end"
      },
      "getLotteryFee()": {
        "notice": "Getter for front end returns the entrance fee"
      },
      "getLotteryState()": {
        "notice": "Getter for front end"
      },
      "getLotteryTicketPrice()": {
        "notice": "Getter for front end returns the lottery Ticket Price"
      },
      "getLotteryUSDCBalance()": {
        "notice": "Getter returns the Lottery USDC current balance (available on Lottery)"
      },
      "getLotteryUSDCBalanceOnCompound()": {
        "notice": "Getter returns the Lottery USDC amount available on Compound"
      },
      "getNewWinnerPrize()": {
        "notice": "Getter for front end"
      },
      "getNumWords()": {
        "notice": "Getter for front end"
      },
      "getPlayerNumberOfTickets(address)": {
        "notice": "Getter returns the Player's number of tickets"
      },
      "getPlayers()": {
        "notice": "Getter for front end returns the players array"
      },
      "getRequestConfirmations()": {
        "notice": "Getter for front end"
      },
      "getTotalNumTickets()": {
        "notice": "Getter returns the total number of active tickets"
      },
      "getWinners()": {
        "notice": "Getter for front end returns the winners array"
      },
      "withdrawFromLottery()": {
        "notice": "function called by Player to withdraw its USDC from Lottery 1. Lottery call LotteryToken => transfer ALL Player's LTK to Lottery 2. Lottery call USDC => Transfer Player's due USDC from Lottery to Player 3. update totalNumTickets 4. reset Player mapping toNumTickets note: when this.withdrawfromCompound() is called, Lottery is in OPEN_TO_WITHDRAW state"
      }
    },
    "notice": "This contract is for creating an untamperable decentralized Lottery smart contractCompoundV3 to lend USDC and generate gainsChainlink VRF will pick a random numberChainlink Keeper has 2 roles: 1. will call the function to pick a Winner, when the Lottery is in OPEN_TO_PLAY state 2. will set the time during which Players can withdraw their funds, after a Lottery runPlayer can enter Lottery by: 1. transfering USDC (lotteryTicketPrice) to start lending 2. sending ETH (lotteryFee) to pay the LotteryPlayer gets 1 Lottery Token (LTK) by entering Lottery.When a Player withdraws its USDC, he transfers all its LTK to Lottery",
    "version": 1
  },
  "storageLayout": {
    "storage": [
      {
        "astId": 2073,
        "contract": "contracts/Lottery.sol:Lottery",
        "label": "s_endPlayTime",
        "offset": 0,
        "slot": "0",
        "type": "t_uint256"
      },
      {
        "astId": 2075,
        "contract": "contracts/Lottery.sol:Lottery",
        "label": "s_endWithDrawTime",
        "offset": 0,
        "slot": "1",
        "type": "t_uint256"
      },
      {
        "astId": 2077,
        "contract": "contracts/Lottery.sol:Lottery",
        "label": "s_lastTimeStamp",
        "offset": 0,
        "slot": "2",
        "type": "t_uint256"
      },
      {
        "astId": 2079,
        "contract": "contracts/Lottery.sol:Lottery",
        "label": "s_newPrize",
        "offset": 0,
        "slot": "3",
        "type": "t_uint256"
      },
      {
        "astId": 2082,
        "contract": "contracts/Lottery.sol:Lottery",
        "label": "s_winners",
        "offset": 0,
        "slot": "4",
        "type": "t_array(t_address)dyn_storage"
      },
      {
        "astId": 2084,
        "contract": "contracts/Lottery.sol:Lottery",
        "label": "s_totalNumTickets",
        "offset": 0,
        "slot": "5",
        "type": "t_uint256"
      },
      {
        "astId": 2088,
        "contract": "contracts/Lottery.sol:Lottery",
        "label": "playerToNumTickets",
        "offset": 0,
        "slot": "6",
        "type": "t_mapping(t_address,t_uint256)"
      },
      {
        "astId": 2092,
        "contract": "contracts/Lottery.sol:Lottery",
        "label": "s_newWinner",
        "offset": 0,
        "slot": "7",
        "type": "t_address"
      },
      {
        "astId": 2095,
        "contract": "contracts/Lottery.sol:Lottery",
        "label": "s_players",
        "offset": 0,
        "slot": "8",
        "type": "t_array(t_address)dyn_storage"
      },
      {
        "astId": 2098,
        "contract": "contracts/Lottery.sol:Lottery",
        "label": "s_lotteryState",
        "offset": 0,
        "slot": "9",
        "type": "t_enum(LotteryState)2056"
      },
      {
        "astId": 2101,
        "contract": "contracts/Lottery.sol:Lottery",
        "label": "s_isFirstPlayer",
        "offset": 1,
        "slot": "9",
        "type": "t_bool"
      },
      {
        "astId": 2104,
        "contract": "contracts/Lottery.sol:Lottery",
        "label": "lotteryToken",
        "offset": 2,
        "slot": "9",
        "type": "t_contract(LotteryToken)3280"
      },
      {
        "astId": 2122,
        "contract": "contracts/Lottery.sol:Lottery",
        "label": "usdc",
        "offset": 0,
        "slot": "10",
        "type": "t_contract(ERC20)1833"
      },
      {
        "astId": 2125,
        "contract": "contracts/Lottery.sol:Lottery",
        "label": "comet",
        "offset": 0,
        "slot": "11",
        "type": "t_contract(Comet)3498"
      }
    ],
    "types": {
      "t_address": {
        "encoding": "inplace",
        "label": "address",
        "numberOfBytes": "20"
      },
      "t_array(t_address)dyn_storage": {
        "base": "t_address",
        "encoding": "dynamic_array",
        "label": "address[]",
        "numberOfBytes": "32"
      },
      "t_bool": {
        "encoding": "inplace",
        "label": "bool",
        "numberOfBytes": "1"
      },
      "t_contract(Comet)3498": {
        "encoding": "inplace",
        "label": "contract Comet",
        "numberOfBytes": "20"
      },
      "t_contract(ERC20)1833": {
        "encoding": "inplace",
        "label": "contract ERC20",
        "numberOfBytes": "20"
      },
      "t_contract(LotteryToken)3280": {
        "encoding": "inplace",
        "label": "contract LotteryToken",
        "numberOfBytes": "20"
      },
      "t_enum(LotteryState)2056": {
        "encoding": "inplace",
        "label": "enum Lottery.LotteryState",
        "numberOfBytes": "1"
      },
      "t_mapping(t_address,t_uint256)": {
        "encoding": "mapping",
        "key": "t_address",
        "label": "mapping(address => uint256)",
        "numberOfBytes": "32",
        "value": "t_uint256"
      },
      "t_uint256": {
        "encoding": "inplace",
        "label": "uint256",
        "numberOfBytes": "32"
      }
    }
  }
}